:020000040800F2
:1000000000500020ED190008251700082B170008E4
:1000100031170008371700083D17000800000000DE
:10002000000000000000000000000000431700086E
:100030004F170008000000005B1700086717000852
:10004000351A0008351A0008351A0008351A000854
:10005000351A0008351A0008351A0008351A000844
:10006000351A0008351A0008351A0008351A000834
:10007000351A0008351A000875170008351A0008E7
:10008000351A0008351A0008351A0008351A000814
:10009000351A0008351A0008351A0008351A000804
:1000A000351A0008351A0008351A0008351A0008F4
:1000B00089170008351A0008351A0008351A000893
:1000C000351A0008351A0008351A0008351A0008D4
:1000D000351A00089D170008351A0008351A00085F
:1000E000351A0008351A0008351A0008000000000B
:1000F0000000000000000000000000000000000000
:0C01000000000000000000005FF808F1A3
:1001100010B5054C237833B9044B13B10448AFF341
:1001200000800123237010BDDC01002000000000CE
:10013000F47F000808B5034B1BB103490348AFF334
:10014000008008BD00000000E0010020F47F0008EE
:10015000034613F8012B002AFBD1181A0138704707
:1001600081F0004102E000BF83F0004330B54FEA68
:1001700041044FEA430594EA050F08BF90EA020FD5
:100180001FBF54EA000C55EA020C7FEA645C7FEA68
:10019000655C00F0E2804FEA5454D4EB5555B8BF8B
:1001A0006D420CDD2C4480EA020281EA030382EAFC
:1001B000000083EA010180EA020281EA0303362D8E
:1001C00088BF30BD11F0004F4FEA01314FF4801C61
:1001D0004CEA113102D0404261EB410113F0004F73
:1001E0004FEA03334CEA133302D0524263EB43032A
:1001F00094EA050F00F0A780A4F10104D5F1200EC8
:100200000DDB02FA0EFC22FA05F2801841F1000122
:1002100003FA0EF2801843FA05F359410EE0A5F1F6
:1002200020050EF1200E012A03FA0EFC28BF4CF027
:10023000020C43FA05F3C01851EBE37101F00045DD
:1002400007D54FF0000EDCF1000C7EEB00006EEBEA
:100250000101B1F5801F1BD3B1F5001F0CD3490874
:100260005FEA30004FEA3C0C04F101044FEA4452CB
:1002700012F5800F80F09A80BCF1004F08BF5FEA52
:10028000500C50F1000041EB045141EA050130BD32
:100290005FEA4C0C404141EB0101013C28BFB1F544
:1002A000801FE9D291F0000F04BF01460020B1FA8F
:1002B00081F308BF2033A3F10B03B3F120020CDA62
:1002C0000C3208DD02F1140CC2F10C0201FA0CF040
:1002D00021FA02F10CE002F11402D8BFC2F1200CA5
:1002E00001FA02F120FA0CFCDCBF41EA0C0190405B
:1002F000E41AA2BF01EB0451294330BD6FEA0404A4
:100300001F3C1CDA0C340EDC04F11404C4F120028E
:1003100020FA04F001FA02F340EA030021FA04F3A0
:1003200045EA030130BDC4F10C04C4F1200220FAF7
:1003300002F001FA04F340EA0300294630BD21FA35
:1003400004F0294630BD94F0000F83F4801306BFFB
:1003500081F480110134013D4EE77FEA645C18BFEF
:100360007FEA655C29D094EA050F08BF90EA020F86
:1003700005D054EA000C04BF1946104630BD91EA7E
:10038000030F1EBF0021002030BD5FEA545C05D181
:100390004000494128BF41F0004130BD14F58004C0
:1003A0003CBF01F5801130BD01F0004545F0FE4134
:1003B00041F470014FF0000030BD7FEA645C1ABF69
:1003C000194610467FEA655C1CBF0B46024650EAA0
:1003D000013406BF52EA033591EA030F41F40021CC
:1003E00030BD00BF90F0000F04BF0021704730B552
:1003F0004FF4806404F132044FF000054FF0000127
:1004000050E700BF90F0000F04BF0021704730B5E7
:100410004FF4806404F1320410F0004548BF4042BC
:100420004FF000013EE700BF42004FEAE2014FEA11
:1004300031014FEA02701FBF12F07F4393F07F4FEC
:1004400081F06051704732F07F4208BF704793F0EF
:100450007F4F04BF41F40021704730B54FF4607402
:1004600001F0004521F000411CE700BF50EA010205
:1004700008BF704730B54FF000050AE050EA0102AE
:1004800008BF704730B511F0004502D5404261EB1E
:1004900041014FF4806404F132045FEA915C3FF45F
:1004A000D8AE4FF003025FEADC0C18BF03325FEAFC
:1004B000DC0C18BF033202EBDC02C2F1200300FAAD
:1004C00003FC20FA02F001FA03FE40EA0E0021FAD2
:1004D00002F11444BDE600BF70B54FF0FF0C4CF4C0
:1004E000E06C1CEA11541DBF1CEA135594EA0C0F72
:1004F00095EA0C0F00F0DEF82C4481EA030621EAAD
:100500004C5123EA4C5350EA013518BF52EA0335E7
:1005100041F4801143F4801338D0A0FB02CE4FF099
:100520000005E1FB02E506F00042E0FB03E54FF0C9
:100530000006E1FB03569CF0000F18BF4EF0010EC1
:10054000A4F1FF04B6F5007F64F5407404D25FEABD
:100550004E0E6D4146EB060642EAC62141EA555170
:100560004FEAC52040EA5E504FEACE2EB4F1FD0CB2
:1005700088BFBCF5E06F1ED8BEF1004F08BF5FEA30
:10058000500E50F1000041EB045170BD06F00046E2
:1005900046EA010140EA020081EA0301B4EB5C048F
:1005A000C2BFD4EB0C0541EA045170BD41F4801187
:1005B0004FF0000E013C00F3AB8014F1360FDEBFAC
:1005C000002001F0004170BDC4F10004203C35DA88
:1005D0000C341BDC04F11404C4F1200500FA05F30B
:1005E00020FA04F001FA05F240EA020001F00042AC
:1005F00021F0004110EBD37021FA04F642EB060122
:100600005EEA430E08BF20EAD37070BDC4F10C044B
:10061000C4F1200500FA04F320FA05F001FA04F20F
:1006200040EA020001F0004110EBD37041F10001FB
:100630005EEA430E08BF20EAD37070BDC4F1200506
:1006400000FA05F24EEA020E20FA04F301FA05F26E
:1006500043EA020321FA04F001F0004121FA04F216
:1006600020EA020000EBD3705EEA430E08BF20EAE6
:10067000D37070BD94F0000F0FD101F00046400020
:1006800041EB010111F4801F08BF013CF7D041EAA2
:10069000060195F0000F18BF704703F000465200A6
:1006A00043EB030313F4801F08BF013DF7D043EA77
:1006B0000603704794EA0C0F0CEA135518BF95EA2D
:1006C0000C0F0CD050EA410618BF52EA4306D1D1B4
:1006D00081EA030101F000414FF0000070BD50EAD3
:1006E000410606BF1046194652EA430619D094EA5D
:1006F0000C0F02D150EA013613D195EA0C0F05D147
:1007000052EA03361CBF104619460AD181EA03019A
:1007100001F0004141F0FE4141F470014FF0000052
:1007200070BD41F0FE4141F4780170BD70B54FF0ED
:10073000FF0C4CF4E06C1CEA11541DBF1CEA13556D
:1007400094EA0C0F95EA0C0F00F0A7F8A4EB05044F
:1007500081EA030E52EA03354FEA013100F0888046
:100760004FEA03334FF0805545EA131343EA12630F
:100770004FEA022245EA111545EA10654FEA0026C4
:100780000EF000419D4208BF964244F1FD0404F57D
:10079000407402D25B084FEA3202B61A65EB0305D9
:1007A0005B084FEA32024FF480104FF4002CB6EB96
:1007B000020E75EB030E22BFB61A754640EA0C0016
:1007C0005B084FEA3202B6EB020E75EB030E22BF56
:1007D000B61A754640EA5C005B084FEA3202B6EB97
:1007E000020E75EB030E22BFB61A754640EA9C0056
:1007F0005B084FEA3202B6EB020E75EB030E22BF26
:10080000B61A754640EADC0055EA060E18D04FEAE3
:10081000051545EA16754FEA06164FEAC30343EA83
:1008200052734FEAC2025FEA1C1CC0D111F4801F50
:100830000BD141EA00014FF000004FF0004CB6E749
:1008400011F4801F04BF01430020B4F1FD0C88BFE8
:10085000BCF5E06F3FF6AFAEB5EB030C04BFB6EBF3
:10086000020C5FEA500C50F1000041EB045170BDE6
:100870000EF0004E4EEA113114EB5C04C2BFD4EB13
:100880000C0541EA045170BD41F480114FF0000E97
:10089000013C90E645EA060E8DE60CEA135594EA13
:1008A0000C0F08BF95EA0C0F3FF43BAF94EA0C0F16
:1008B0000AD150EA01347FF434AF95EA0C0F7FF48B
:1008C00025AF104619462CE795EA0C0F06D152EADF
:1008D00003353FF4FDAE1046194622E750EA4106C3
:1008E00018BF52EA43067FF4C5AE50EA41047FF4D4
:1008F0000DAF52EA43057FF4EBAE12E74FF0FF3C39
:1009000006E000BF4FF0010C02E000BF4FF0010C09
:100910004DF804CD4FEA410C7FEA6C5C4FEA430C82
:1009200018BF7FEA6C5C1BD001B050EA410C0CBFD1
:1009300052EA430C91EA030F02BF90EA020F002033
:10094000704710F1000F91EA030F58BF994208BF9A
:1009500090422CBFD8176FEAE37040F00100704757
:100960004FEA410C7FEA6C5C02D150EA013C07D1AE
:100970004FEA430C7FEA6C5CD6D152EA033CD3D0F9
:100980005DF8040B704700BF8446104662468C46F3
:100990001946634600E000BF01B5FFF7B7FF002826
:1009A00048BF10F1000F01BD4DF808EDFFF7F4FF4F
:1009B0000CBF012000205DF808FB00BF4DF808EDDA
:1009C000FFF7EAFF34BF012000205DF808FB00BFFD
:1009D0004DF808EDFFF7E0FF94BF012000205DF81F
:1009E00008FB00BF4DF808EDFFF7CEFF94BF0120D4
:1009F00000205DF808FB00BF4DF808EDFFF7C4FFCD
:100A000034BF012000205DF808FB00BF4FEA410C15
:100A10007FEA6C5C02D150EA013C0AD14FEA430CF8
:100A20007FEA6C5C02D152EA033C02D14FF0000035
:100A300070474FF0010070474FEA410212F5001273
:100A400015D211D56FF47873B3EB625212D94FEA15
:100A5000C12343F0004343EA505311F0004F23FAFF
:100A600002F018BF404270474FF00000704750EA54
:100A7000013005D111F0004008BF6FF00040704711
:100A80004FF00000704700BF4FEA4102B2F1E0436F
:100A900024BFB3F5001CDCF1FE5C0DD901F0004C65
:100AA0004FEAC0024CEA5070B2F1004F40EB8300B5
:100AB00008BF20F00100704711F0804F21D113F1E1
:100AC0003872BCBF01F00040704741F480114FEA1A
:100AD0005252C2F11802C2F1200C10FA0CF320FAA3
:100AE00002F018BF40F001004FEAC1234FEAD323C0
:100AF00003FA0CFC40EA0C0023FA02F34FEA43032A
:100B0000CCE77FEA625307D150EA01331EBF4FF0B2
:100B1000FE4040F44000704701F0004040F0FE40CD
:100B200040F40000704700BF80F0004002E000BFCA
:100B300081F0004142001FBF5FEA410392EA030FC8
:100B40007FEA226C7FEA236C6AD04FEA1262D2EB12
:100B50001363C1BFD218414048404140B8BF5B4217
:100B6000192B88BF704710F0004F40F4000020F0B0
:100B70007F4018BF404211F0004F41F4000121F0C6
:100B80007F4118BF494292EA030F3FD0A2F1010210
:100B900041FA03FC10EB0C00C3F1200301FA03F14E
:100BA00000F0004302D5494260EB4000B0F5000F71
:100BB00013D3B0F1807F06D340084FEA310102F130
:100BC0000102FE2A51D2B1F1004F40EBC25008BFE2
:100BD00020F0010040EA03007047490040EB0000AC
:100BE000013A28BFB0F5000FEDD2B0FA80FCACF1AD
:100BF000080CB2EB0C0200FA0CF0AABF00EBC250DA
:100C000052421843BCBFD0401843704792F0000FC7
:100C100081F4000106BF80F400000132013BB5E71A
:100C20004FEA41037FEA226C18BF7FEA236C21D090
:100C300092EA030F04D092F0000F08BF08467047F5
:100C400090EA010F1CBF0020704712F07F4F04D1C3
:100C5000400028BF40F00040704712F100723CBFD6
:100C600000F50000704700F0004343F0FE4040F400
:100C7000000070477FEA226216BF08467FEA2363BE
:100C80000146420206BF5FEA412390EA010F40F4A9
:100C9000800070474FF0000304E000BF10F00043F5
:100CA00048BF40425FEA000C08BF704743F09643DC
:100CB00001464FF000001CE050EA010208BF7047F7
:100CC0004FF000030AE000BF50EA010208BF70477E
:100CD00011F0004302D5404261EB41015FEA010C93
:100CE00002BF84460146002043F0B64308BFA3F18B
:100CF0008053A3F50003BCFA8CF2083AA3EBC2536D
:100D000010DB01FA02FC634400FA02FCC2F120028B
:100D1000BCF1004F20FA02F243EB020008BF20F0C2
:100D20000100704702F1200201FA02FCC2F1200228
:100D300050EA4C0021FA02F243EB020008BF20EA1D
:100D4000DC7070474FF0FF3C06E000BF4FF0010C35
:100D500002E000BF4FF0010C4DF804CD4FEA400215
:100D60004FEA41037FEA226C18BF7FEA236C11D05F
:100D700001B052EA530C18BF90EA010F58BFB2EB12
:100D8000030088BFC81738BF6FEAE17018BF40F092
:100D9000010070477FEA226C02D15FEA402C05D146
:100DA0007FEA236CE4D15FEA412CE1D05DF8040BCB
:100DB000704700BF844608466146FFE70FB5FFF75E
:100DC000C9FF002848BF10F1000F0FBD4DF808ED16
:100DD000FFF7F4FF0CBF012000205DF808FB00BF07
:100DE0004DF808EDFFF7EAFF34BF012000205DF861
:100DF00008FB00BF4DF808EDFFF7E0FF94BF0120AE
:100E000000205DF808FB00BF4DF808EDFFF7D2FFAA
:100E100094BF012000205DF808FB00BF4DF808EDED
:100E2000FFF7C8FF34BF012000205DF808FB00BFBA
:100E300080B588B002AF424A07F10C031268114630
:100E400019800233120C1A7007F10C02642300930C
:100E5000032370213B4801F0A7FC0346002B6AD115
:100E6000502000F04BFE3A1D6423009307237021AD
:100E7000344801F097FD0346002B5CD13B795BB20F
:100E8000002B58DB7B791A03BB791B011343FA79DA
:100E90001209D2B213437B61FB791B0403F4702265
:100EA0003B7A1B0213437A7A13433B617869FFF75D
:100EB000F1FE03461846FFF7B7FA4FF00002224B47
:100EC000FFF734FC02460B46104619464FF000026D
:100ED0001E4BFFF701FB02460B4610461946FFF773
:100EE000D3FD03461A4A13603869FFF7D3FE034661
:100EF0001846FFF799FA4FF00002134BFFF716FC64
:100F000002460B46104619464FF00002114BFFF700
:100F1000E3FA02460B46104619464FF000020E4B0C
:100F2000FFF722F902460B4610461946FFF7ACFDC3
:100F300003460A4A136000BF1837BD4680BD00BF94
:100F40001080000874020020000030410000594069
:100F5000000200200000694000004940FC01002020
:100F600080B500AF1A4B1B684FF084411846FFF75D
:100F700055FF0346002B05D000220421154801F03F
:100F80009EFA04E001220421124801F098FA124B63
:100F90001B684FF000011846FFF740FF0346002B87
:100FA0000ED00D4B1B680D491846FFF719FF03467D
:100FB000002B05D000220821064801F080FA05E048
:100FC00001220821034801F07AFA00BF00BF80BD6A
:100FD000FC010020000801400002002000009642B1
:100FE00080B500AF4FF400610C4801F051FA0346A0
:100FF000012B08D10A4B01221A7000220221094854
:1010000001F05DFA07E0064B00221A70012202216E
:10101000044801F054FA00BF80BD00BF000C01403D
:10102000F90100200008014080B500AF4FF40051E5
:10103000024801F05CFA00BF80BD00BF0010014013
:1010400080B500AF00F0F8FC00F056F800F05EF953
:1010500000F098F800F0C4F800F03AF900F00EF94A
:10106000214802F0EFFE01222049214803F067FBEE
:10107000012202211F4801F022FA012204211D4809
:1010800001F01DFA012208211A4801F018FA012284
:101090001021184801F013FA6421002000F0D4F95F
:1010A000C821012000F0D0F9002000F0E5F9034646
:1010B000002B05D0FFF7B8FF6421002000F0C4F931
:1010C000FFF78EFF012000F0D7F90346002BEBD08D
:1010D000FFF7AEFEFFF744FF00F030FCC82101200F
:1010E00000F0B2F9E0E700BF54030020F80100204F
:1010F0000C0300200008014080B590B000AF07F15C
:10110000180328220021184604F0D2F83B1D0022C3
:101110001A605A609A60DA601A610123BB614FF469
:101120008033FB6100233B620123BB6202237B63AC
:101130004FF48033BB634FF4E013FB6307F11803F4
:10114000184602F021FA0346002B01D000F076F990
:101150000F237B600223BB600023FB604FF480639E
:101160003B6100237B613B1D0221184602F08CFC91
:101170000346002B01D000F061F900BF4037BD46A7
:1011800080BD000080B500AF124B134A1A60114BAE
:10119000124A5A600F4B00229A600E4B0022DA600E
:1011A0000C4B4FF480421A610A4B00225A61094BE2
:1011B00000229A61074B0022DA61064B00221A6274
:1011C000044801F0ADF90346002B01D000F036F9D8
:1011D00000BF80BD7402002000540040A0860100C2
:1011E00080B586B000AF07F1080300221A605A608C
:1011F0009A60DA603B4600221A605A601E4B4FF03C
:1012000080421A601C4B40F2CF225A601A4B0022D7
:101210009A60194B40F2E732DA60174B00221A61EC
:10122000154B00229A61144802F0BCFD0346002BC6
:1012300001D000F003F94FF48053BB6007F10803BD
:1012400019460D4802F040FF0346002B01D000F084
:10125000F5F800233B6000237B603B4619460648B7
:1012600003F022F90346002B01D000F0E7F800BF9D
:101270001837BD4680BD00BF5403002080B500AFC5
:10128000114B124A1A60104B4FF416525A600E4B13
:1012900000229A600C4B0022DA600B4B00221A618C
:1012A000094B0C225A61084B00229A61064B00221E
:1012B000DA61054803F068F90346002B01D000F01D
:1012C000BDF800BF80BD00BF0C0300200038014006
:1012D00080B582B000AF0C4B5B690B4A43F0010351
:1012E0005361094B5B6903F001037B607B6800225B
:1012F00000210E2000F0FDFC0E2000F016FD00BFC6
:101300000837BD4680BD00BF0010024080B588B0E0
:1013100000AF07F1100300221A605A609A60DA6089
:10132000344B9B69334A43F010039361314B9B6903
:1013300003F01003FB60FB682E4B9B692D4A43F0C2
:10134000200393612B4B9B6903F02003BB60BB68B8
:10135000284B9B69274A43F004039361254B9B6903
:1013600003F004037B607B68224B9B69214A43F0B6
:10137000080393611F4B9B6903F008033B603B68C4
:1013800000224FF400511C4801F099F800221E2160
:101390001A4801F094F84FF400533B6101237B613C
:1013A0000023BB610323FB6107F1100319461248B8
:1013B00000F0EAFE1E233B6101237B610023BB6139
:1013C0000323FB6107F1100319460C4800F0DCFE13
:1013D0004FF400633B6100237B610123BB6107F194
:1013E00010031946064800F0CFFE00BF2037BD4667
:1013F00080BD00BF00100240001001400008014005
:10140000000C014080B582B000AF786000F048F871
:1014100000BF0837BD4680BD80B582B000AF7860A0
:101420007B681B68044A934201D100F0BDFA00BFFB
:101430000837BD4680BD00BF0038014080B400AF12
:1014400072B600BFFEE7000080B483B000AF7860E2
:10145000396007497B683A6841F82320054A7B6870
:10146000002142F8231000BF0C37BD4680BC7047F6
:101470009C030020EC03002080B483B000AF7860B0
:10148000064A7B6852F82330012B01D1012300E08A
:10149000002318460C37BD4680BC7047EC03002083
:1014A00080B483B000AF00237B601CE0124A7B68ED
:1014B00052F82330002B13DD0F4A7B6852F823309B
:1014C0005A1E0D497B6841F823200B4A7B6852F86D
:1014D0002330002B04DC094A7B68012142F82310E9
:1014E0007B6801337B607B68132BDFDD00BF00BFAF
:1014F0000C37BD4680BC70479C030020EC030020E5
:1015000080B485B000AF154B9B69144A43F00103CA
:101510009361124B9B6903F00103BB60BB680F4BE7
:10152000DB690E4A43F08053D3610C4BDB6903F057
:1015300080537B607B680A4B5B68FB60FB6823F031
:10154000E063FB60FB6843F00073FB60044AFB68E8
:10155000536000BF1437BD4680BC70470010024086
:101560000000014080B588B000AF786007F110033B
:1015700000221A605A609A60DA607B681B68154A1C
:10158000934223D1144B9B69134A43F008039361A0
:10159000114B9B6903F00803FB60FB68C0233B61B0
:1015A00012237B610323FB6107F1100319460B48EB
:1015B00000F0EAFD084BDB69074A43F40013D361EE
:1015C000054BDB6903F40013BB60BB6800BF203729
:1015D000BD4680BD0054004000100240000C014098
:1015E00080B584B000AF78607B681B68B3F1804F32
:1015F00013D10C4BDB690B4A43F00103D361094B58
:10160000DB6903F00103FB60FB68002200211C2062
:1016100000F06FFB1C2000F088FB00BF1037BD46B8
:1016200080BD00BF0010024080B588B000AF786078
:1016300007F1100300221A605A609A60DA607B6832
:101640001B68334A93425FD1324B9B69314A43F462
:10165000804393612F4B9B6903F48043FB60FB68DD
:101660002C4B9B692B4A43F004039361294B9B69E4
:1016700003F00403BB60BB684FF400733B610223BB
:101680007B610323FB6107F110031946224800F038
:101690007BFD4FF480633B6100237B610023BB61D2
:1016A00007F1100319461C4800F06EFD1B4B1C4A45
:1016B0001A601A4B10225A60184B00229A60174B7E
:1016C0008022DA60154B00221A61144B00225A6105
:1016D000124B00229A61114B0022DA610F4800F090
:1016E0003FFB0346002B01D0FFF7A8FE7B680B4AA7
:1016F0009A630A4A7B68536200220021252000F089
:10170000F8FA252000F011FB00BF2037BD4680BD50
:10171000003801400010024000080140C8020020CB
:101720004400024080B400AFFEE780B400AFFEE7A3
:1017300080B400AFFEE780B400AFFEE780B400AF36
:10174000FEE780B400AF00BFBD4680BC704780B4E8
:1017500000AF00BFBD4680BC704780B400AF00BF83
:10176000BD4680BC704780B500AF00F0ABF900BF4C
:1017700080BD000080B500AF024800F0FFFB00BF55
:1017800080BD00BFC802002080B500AF024802F053
:10179000ABFB00BF80BD00BF5403002080B500AF8D
:1017A000024802F0F1FF00BF80BD00BF0C03002023
:1017B00080B400AF01231846BD4680BC704780B599
:1017C00082B000AF7860396003F048FD034616220E
:1017D0001A604FF0FF3318460837BD4680BD80B50C
:1017E00082B000AF78604FF0FF317868FFF7E7FF15
:1017F000FEE780B586B000AFF860B9607A6000237C
:101800007B610AE0AFF300800146BB685A1CBA60F6
:10181000CAB21A707B6901337B617A697B689A422C
:10182000F0DB7B6818461837BD4680BD80B586B0B2
:1018300000AFF860B9607A6000237B6109E0BB68A3
:101840005A1CBA601B781846AFF300807B690133DD
:101850007B617A697B689A42F1DB7B6818461837AE
:10186000BD4680BD80B483B000AF78604FF0FF33D9
:1018700018460C37BD4680BC704780B483B000AFBB
:10188000786039603B684FF400525A600023184674
:101890000C37BD4680BC704780B483B000AF786021
:1018A000012318460C37BD4680BC704780B485B014
:1018B00000AFF860B9607A60002318461437BD465F
:1018C00080BC704780B586B000AF7860144A154B75
:1018D000D31A7B617B693B61134B1B68002B02D1E0
:1018E000114B124A1A60104B1A687B6813443A690C
:1018F0009A4207D203F0B2FC03460C221A604FF062
:10190000FF3309E0084B1B68FB60074B1A687B68D4
:101910001344054A1360FB6818461837BD4680BD5E
:101920000050002000040000680200205004002045
:1019300080B400AF00BFBD4680BC7047B0B584B076
:1019400004AF134B1B681846FEF76EFD04460D46A8
:10195000104B1B681846FEF767FD02460B460E4902
:1019600009780291CDE9002322462B460B490C4809
:1019700004F006F90A48FEF7EBFB03469AB264232B
:101980000749084802F050FE00BFBD46B0BD00BF89
:10199000FC01002000020020F90100201480000852
:1019A000040200200C03002080B500AF0C4B1B7814
:1019B000342B05D1002210210A4800F080FD08E0F8
:1019C000074B1B78352B04D101221021054800F06C
:1019D00076FD01220249044802F0B1FE00BF80BD3D
:1019E000F8010020000801400C030020FFF7A0FFD1
:1019F0000B480C490C4A002302E0D458C45004336D
:101A0000C4188C42F9D3094A094C002301E0136041
:101A10000432A242FBD303F027FCFFF711FB70470F
:101A200000000020DC01002054840008DC010020BC
:101A300050040020FEE7000080B500AF084B1B6893
:101A4000074A43F010031360032000F047F90F200A
:101A500000F008F8FFF754FD0023184680BD00BFD2
:101A60000020024080B582B000AF7860124B1A6847
:101A7000124B1B7819464FF47A73B3FBF1F3B2FBA8
:101A8000F3F3184600F05FF90346002B01D0012361
:101A90000EE07B680F2B0AD8002279684FF0FF30E8
:101AA00000F027F9064A7B681360002300E0012359
:101AB00018460837BD4680BD000000200800002001
:101AC0000400002080B400AF054B1B781A46054B7C
:101AD0001B681344034A136000BFBD4680BC7047B7
:101AE000080000203C04002080B400AF024B1B68BB
:101AF0001846BD4680BC70473C04002080B584B0C9
:101B000000AF7860FFF7F0FFB8607B68FB60FB68B0
:101B1000B3F1FF3F05D00A4B1B781A46FB6813440C
:101B2000FB6000BFFFF7E0FF0246BB68D31AFA680C
:101B30009A42F7D800BF00BF1037BD4680BD00BF36
:101B40000800002080B485B000AF78607B6803F0A7
:101B50000703FB600C4BDB68BB60BA684FF6FF0302
:101B60001340BB60FB681A02BB68134343F0BF63BA
:101B700043F40033BB60044ABB68D36000BF143732
:101B8000BD4680BC704700BF00ED00E080B400AFF0
:101B9000044BDB681B0A03F007031846BD4680BCF4
:101BA000704700BF00ED00E080B483B000AF034693
:101BB000FB7197F90730002B0BDBFB7903F01F0259
:101BC000064997F907305B09012000FA02F241F853
:101BD000232000BF0C37BD4680BC704700E100E009
:101BE00080B483B000AF03463960FB7197F90730CA
:101BF000002B0ADB3B68DAB20C4997F90730120177
:101C0000D2B20B4483F800230AE03B68DAB20849F9
:101C1000FB7903F00F03043B1201D2B20B441A7696
:101C200000BF0C37BD4680BC704700BF00E100E03C
:101C300000ED00E080B489B000AFF860B9607A6070
:101C4000FB6803F00703FB61FB69C3F10703042B87
:101C500028BF0423BB61FB690433062B02D9FB694F
:101C6000033B00E000237B614FF0FF32BB6902FAC7
:101C700003F3DA43BB681A407B699A404FF0FF31A7
:101C80007B6901FA03F3D9437B680B401343184681
:101C90002437BD4680BC704780B582B000AF786005
:101CA0007B68013BB3F1807F01D301230FE00A4A37
:101CB0007B68013B53600F214FF0FF30FFF790FF2F
:101CC000054B00229A60044B07221A600023184635
:101CD0000837BD4680BD00BF10E000E080B582B08F
:101CE00000AF78607868FFF72DFF00BF0837BD466A
:101CF00080BD80B586B000AF0346B9607A60FB73E3
:101D000000237B61FFF742FF78617A68B9687869E0
:101D1000FFF790FF024697F90F3011461846FFF77C
:101D20005FFF00BF1837BD4680BD80B582B000AFF1
:101D30000346FB7197F907301846FFF735FF00BFE0
:101D40000837BD4680BD80B582B000AF7860786846
:101D5000FFF7A2FF034618460837BD4680BD0000C6
:101D600080B485B000AF78600023FB607B68002BF7
:101D700001D1012343E07B681B681A46224B1344C0
:101D8000224AA2FB03231B099A007B681A647B6822
:101D90001F4ADA637B68022283F821207B681B6874
:101DA0001B68FB60FB6823F47F5323F03003FB6068
:101DB0007B685A687B689B681A437B68DB681A43B8
:101DC0007B681B691A437B685B691A437B689B6964
:101DD0001A437B68DB691343FA681343FB607B6833
:101DE0001B68FA681A607B6800229A637B6801228C
:101DF00083F821207B68002283F8202000231846E6
:101E00001437BD4680BC7047F8FFFDBFCDCCCCCCAD
:101E10000000024080B485B000AF78600023FB73FF
:101E20007B6893F82130DBB2022B08D07B68042258
:101E30009A637B68002283F82020012320E07B68DE
:101E40001B681A687B681B6822F00E021A607B68A8
:101E50001B681A687B681B6822F001021A607B68A5
:101E60001A6C7B68DB6B012101FA02F25A607B6815
:101E7000012283F821207B68002283F82020FB7B4D
:101E800018461437BD4680BC7047000080B584B04A
:101E900000AF78600023FB737B6893F82130DBB2DE
:101EA000022B05D07B6804229A630123FB7351E067
:101EB0007B681B681A687B681B6822F00E021A6038
:101EC0007B681B681A687B681B6822F001021A6035
:101ED0007B681B68224A934229D07B681B68214A91
:101EE000934222D07B681B681F4A93421AD07B68BA
:101EF0001B681E4A934212D07B681B681C4A93429F
:101F00000AD07B681B681B4A934202D14FF48013AE
:101F10000EE04FF080730BE04FF4803308E04FF495
:101F2000805305E04FF4807302E0102300E00123AA
:101F3000114A53607B68012283F821207B680022CC
:101F400083F820207B685B6B002B03D07B685B6B86
:101F500078689847FB7B18461037BD4680BD00BFA8
:101F6000080002401C0002403000024044000240D1
:101F7000580002406C0002400000024080B584B06E
:101F800000AF78607B68DB6B1B68FB607B681B685D
:101F90001B68BB607B681B6C04229A40FB68134083
:101FA000002B4FD0BB6803F00403002B4AD07B68A2
:101FB0001B681B6803F02003002B07D17B681B689C
:101FC0001A687B681B6822F004021A607B681B6831
:101FD000664A934229D07B681B68654A934222D0A7
:101FE0007B681B68634A93421AD07B681B68624A0D
:101FF000934212D07B681B68604A93420AD07B6888
:102000001B685F4A934202D14FF480030EE04FF009
:1020100080630BE04FF4802308E04FF4804305E039
:102020004FF4806302E0402300E00423554A5360EC
:102030007B68DB6A002B00F094807B68DB6A786841
:1020400098478EE07B681B6C02229A40FB68134025
:10205000002B56D0BB6803F00203002B51D07B68E5
:102060001B681B6803F02003002B0BD17B681B68E7
:102070001A687B681B6822F00A021A607B680122DA
:1020800083F821207B681B68384A934229D07B68FB
:102090001B68374A934222D07B681B68354A9342BB
:1020A0001AD07B681B68344A934212D07B681B6845
:1020B000324A93420AD07B681B68314A934202D16C
:1020C0004FF400130EE04FF000730BE04FF40033B9
:1020D00008E04FF4005305E04FF4007302E02023C2
:1020E00000E00223274A53607B68002283F8202007
:1020F0007B689B6A002B34D07B689B6A7868984722
:102100002FE07B681B6C08229A40FB681340002B71
:1021100028D0BB6803F00803002B23D07B681B6822
:102120001A687B681B6822F00E021A607B681A6CC2
:102130007B68DB6B012101FA02F25A607B680122A5
:102140009A637B68012283F821207B68002283F850
:1021500020207B681B6B002B04D07B681B6B78688E
:10216000984700BF00BF1037BD4680BD0800024041
:102170001C0002403000024044000240580002406F
:102180006C0002400000024080B48BB000AF786069
:10219000396000237B6200233B6269E101227B6A94
:1021A00002FA03F3FB613B681B68FA691340BB61E9
:1021B000BA69FB699A4240F058813B685B689A4A69
:1021C00093425ED0984A934275D8984A934258D029
:1021D000964A93426FD8964A934252D0944A934279
:1021E00069D8944A93424CD0924A934263D8924A17
:1021F000934246D0904A93425DD8122B2AD8122B94
:1022000059D801A252F823F0832200085D22000869
:102210006F220008B1220008B7220008B722000888
:10222000B7220008B7220008B7220008B72200082A
:10223000B7220008B7220008B7220008B72200081A
:10224000B7220008B7220008B7220008652200085C
:1022500079220008794A934213D02CE03B68DB686E
:102260003B6229E03B68DB6804333B6224E03B6867
:10227000DB6808333B621FE03B68DB680C333B6282
:102280001AE03B689B68002B02D104233B6213E0F9
:102290003B689B68012B05D108233B627B68FA6988
:1022A0001A6109E008233B627B68FA695A6103E01E
:1022B00000233B6200E000BFBB69FF2B01D87B68B5
:1022C00001E07B6804337B61BB69FF2B02D87B6A2A
:1022D0009B0002E07B6A083B9B003B617B691A68BC
:1022E0000F213B6901FA03F3DB431A40396A3B696A
:1022F00001FA03F31A437B691A603B685B6803F0D9
:102300008053002B00F0B1804D4B9B694C4A43F049
:10231000010393614A4B9B6903F00103BB60BB68F7
:10232000484A7B6A9B08023352F82330FB607B6A81
:1023300003F003039B000F2202FA03F3DB43FA6866
:102340001340FB607B68404A934213D07B683F4A4E
:1023500093420DD07B683E4A934207D07B683D4A4A
:10236000934201D1032306E0042304E0022302E0A8
:10237000012300E000237A6A02F0030292009340F6
:10238000FA681343FB602F497B6A9B080233FA68A3
:1023900041F823203B685B6803F48013002B06D0D0
:1023A0002D4B9A682C49BB6913438B6006E02A4B7E
:1023B0009A68BB69DB43284913408B603B685B68C4
:1023C00003F40013002B06D0234BDA682249BB69C3
:1023D0001343CB6006E0204BDA68BB69DB431E4940
:1023E0001340CB603B685B6803F40033002B06D0DE
:1023F000194B5A681849BB6913434B6006E0164BEA
:102400005A68BB69DB43144913404B603B685B6807
:1024100003F48033002B21D00F4B1A680E49BB699F
:1024200013430B6021E000BF0000321000003110A8
:1024300000002210000021100000121000001110F6
:10244000001002400000014000080140000C014063
:102450000010014000140140000401400B4B1A68B9
:10246000BB69DB43094913400B607B6A01337B6224
:102470003B681A687B6A22FA03F3002B7FF48EAE66
:1024800000BF00BF2C37BD4680BC70470004014030
:1024900080B485B000AF78600B467B807B689A681B
:1024A0007B881340002B02D00123FB7301E0002343
:1024B000FB73FB7B18461437BD4680BC704780B465
:1024C00083B000AF78600B467B8013467B707B78CF
:1024D000002B03D07A887B681A6103E07B881A049A
:1024E0007B681A6100BF0C37BD4680BC704780B462
:1024F00085B000AF78600B467B807B68DB68FB6053
:102500007A88FB6813401A04FB68D9437B880B4028
:102510001A437B681A6100BF1437BD4680BC704700
:1025200080B584B000AF78607B68002B01D10123B7
:102530002BE17B6893F83D30DBB2002B06D17B6842
:10254000002283F83C207868FFF70CF87B6824228F
:1025500083F83D207B681B681A687B681B6822F043
:1025600001021A607B681B681A687B681B6842F46A
:1025700000421A607B681B681A687B681B6822F43B
:1025800000421A6001F0C8FBF8607B685B68814A12
:10259000934207D8FB68804A934294BF01230023EB
:1025A000DBB206E0FB687D4A934294BF012300231F
:1025B000DBB2002B01D00123E7E0FB68784AA2FBE5
:1025C00003239B0CBB607B681B685B6823F03F01A7
:1025D0007B681B68BA680A435A607B681B681B6A81
:1025E00023F03F017B685B686A4A934202D8BB686C
:1025F000013309E0BB684FF4967202FB03F3694AAA
:10260000A2FB03239B0901337A6812680B43136210
:102610007B681B68DB6923F44F4222F0FF027B6872
:102620005B685C498B4219D8FB68591E7B685B6804
:102630005B00B1FBF3F3591C40F6FC730B40002B1D
:102640000AD0FB68591E7B685B685B00B1FBF3F343
:102650000133C3F30B0351E004234FE07B689B6815
:10266000002B11D1FB68581E7B6859680B465B0034
:102670000B44B0FBF3F30133C3F30B03002B0CBF8C
:1026800001230023DBB212E0FB68581E7B68596807
:102690000B469B000B4499000B44B0FBF3F3013352
:1026A000C3F30B03002B0CBF01230023DBB2002B71
:1026B00001D0012322E07B689B68002B0ED1FB68D0
:1026C000581E7B6859680B465B000B44B0FBF3F364
:1026D0000133C3F30B0343F400430FE0FB68581EC0
:1026E0007B6859680B469B000B4499000B44B0FB78
:1026F000F3F30133C3F30B0343F4404379680968F0
:102700001343CB617B681B681B6823F0C0017B68A7
:10271000DA697B681B6A1A437B681B680A431A6084
:102720007B681B689B6823F4034323F0FF037A68EC
:1027300011697A68D26811437A6812680B43936012
:102740007B681B68DB6823F0FF017B685A697B6844
:102750009B691A437B681B680A43DA607B681B68C5
:102760001A687B681B6842F001021A607B680022CD
:102770001A647B68202283F83D207B6800221A635C
:102780007B68002283F83E20002318461037BD46A0
:1027900080BD00BFA08601007F841E00FF083D00B1
:1027A00083DE1B43D34D621080B588B002AFF86062
:1027B0007A601A460B467B8113463B81FFF794F9FA
:1027C0007861FB6893F83D30DBB2202B40F0E0806D
:1027D0007B690093192301227049F86800F09EFC80
:1027E0000346002B01D00223D3E0FB6893F83C3072
:1027F000012B01D10223CCE0FB68012283F83C20AD
:10280000FB681B681B6803F00103012B07D0FB6802
:102810001B681A68FB681B6842F001021A60FB68BB
:102820001B681A68FB681B6822F400621A60FB6868
:10283000212283F83D20FB68102283F83E20FB68AC
:1028400000221A64FB687A685A62FB683A895A85E2
:10285000FB685B8D9AB2FB681A85FB68504ADA62A6
:1028600079897B693A6AF86800F008FB0346002B17
:1028700001D001238DE000233B61FB681B685B698D
:102880003B61FB681B689B693B613B6966E07A6959
:10289000396AF86800F05CFD0346002B0DD0FB6838
:1028A0001B6C042B07D1FB681B681A68FB681B684C
:1028B00042F400721A6001236BE0FB685B6A1A78CD
:1028C000FB681B681A61FB685B6A5A1CFB685A62EA
:1028D000FB685B8D9BB2013B9AB2FB685A85FB6833
:1028E0001B8D013B9AB2FB681A85FB681B685B690C
:1028F00003F00403042B1BD1FB681B8D002B17D0A6
:10290000FB685B6A1A78FB681B681A61FB685B6A84
:102910005A1CFB685A62FB685B8D9BB2013B9AB202
:10292000FB685A85FB681B8D013B9AB2FB681A85D0
:102930007A69396AF86800F053FD0346002B0DD020
:10294000FB681B6C042B07D1FB681B681A68FB68CB
:102950001B6842F400721A6001231AE0FB681B8DA9
:10296000002B94D1FB681B681A68FB681B6842F453
:1029700000721A60FB68202283F83D20FB68002269
:1029800083F83E20FB68002283F83C20002300E00F
:10299000022318461837BD4680BD00BF0200100054
:1029A0000000FFFF80B58CB002AFF8607A601A4675
:1029B0000B467B8113463B8100233B62FFF794F873
:1029C0007862FB6893F83D30DBB2202B40F04B82FD
:1029D0007B6A0093192301227F49F86800F09EFB6F
:1029E0000346002B01D002233EE2FB6893F83C3003
:1029F000012B01D1022337E2FB68012283F83C203E
:102A0000FB681B681B6803F00103012B07D0FB6800
:102A10001B681A68FB681B6842F001021A60FB68B9
:102A20001B681A68FB681B6822F400621A60FB6866
:102A3000222283F83D20FB68102283F83E20FB68A9
:102A400000221A64FB687A685A62FB683A895A85E0
:102A5000FB685B8D9AB2FB681A85FB685F4ADA6295
:102A600079897B6A3A6BF86800F08AFA0346002B92
:102A700001D00123F8E1FB681B8D002B13D100234B
:102A8000FB61FB681B685B69FB61FB681B689B69FA
:102A9000FB61FB69FB681B681A68FB681B6842F4F2
:102AA00000721A60CCE1FB681B8D012B1ED1FB6804
:102AB0001B681A68FB681B6822F480621A6072B691
:102AC00000BF0023BB61FB681B685B69BB61FB68DF
:102AD0001B689B69BB61BB69FB681B681A68FB6864
:102AE0001B6842F400721A6062B635E0FB681B8D09
:102AF000022B1ED1FB681B681A68FB681B6842F436
:102B000000621A6072B600BF00237B61FB681B681D
:102B10005B697B61FB681B689B697B617B69FB6808
:102B20001B681A68FB681B6822F480621A6062B630
:102B300012E0FB681B681A68FB681B6842F480623D
:102B40001A6000233B61FB681B685B693B61FB68A3
:102B50001B689B693B613B6972E1FB681B8D032B22
:102B600000F21F81FB681B8D012B23D17A6A396B20
:102B7000F86800F07DFC0346002B01D0012373E1CF
:102B8000FB681B681A69FB685B6AD2B21A70FB6843
:102B90005B6A5A1CFB685A62FB681B8D013B9AB248
:102BA000FB681A85FB685B8D9BB2013B9AB2FB68A0
:102BB0005A8545E1FB681B8D022B52D17B6A00933D
:102BC0003B6B00220649F86800F0A8FA0346002B88
:102BD00008D0012348E100BF020010000000FFFF01
:102BE0000400010072B600BFFB681B681A68FB682E
:102BF0001B6842F400721A60FB681B681A69FB6864
:102C00005B6AD2B21A70FB685B6A5A1CFB685A6234
:102C1000FB681B8D013B9AB2FB681A85FB685B8DD4
:102C20009BB2013B9AB2FB685A8562B600BFFB6853
:102C30001B681A69FB685B6AD2B21A70FB685B6A30
:102C40005A1CFB685A62FB681B8D013B9AB2FB68F9
:102C50001A85FB685B8D9BB2013B9AB2FB685A8573
:102C6000EEE07B6A00933B6B00228149F86800F03C
:102C700055FA0346002B01D00123F5E0FB681B68E1
:102C80001A68FB681B6822F480621A6072B600BF83
:102C9000FB681B681A69FB685B6AD2B21A70FB6832
:102CA0005B6A5A1CFB685A62FB681B8D013B9AB237
:102CB000FB681A85FB685B8D9BB2013B9AB2FB688F
:102CC0005A856C4B1B68DB086B4AA2FB03231A0A6C
:102CD00013469B001344DA00D31A3B623B6A013B64
:102CE0003B623B6A002B18D1FB6800221A63FB6829
:102CF000202283F83D20FB68002283F83E20FB68F9
:102D00001B6C43F02002FB681A6462B600BFFB68CC
:102D1000002283F83C200123A6E0FB681B685B6966
:102D200003F00403042BD9D1FB681B681A68FB6805
:102D30001B6842F400721A60FB681B681A69FB6822
:102D40005B6AD2B21A70FB685B6A5A1CFB685A62F3
:102D5000FB681B8D013B9AB2FB681A85FB685B8D93
:102D60009BB2013B9AB2FB685A8562B600BFFB6812
:102D70001B681A69FB685B6AD2B21A70FB685B6AEF
:102D80005A1CFB685A62FB681B8D013B9AB2FB68B8
:102D90001A85FB685B8D9BB2013B9AB2FB685A8532
:102DA0004EE07A6A396BF86800F062FB0346002B4C
:102DB00001D0012358E0FB681B681A69FB685B6A55
:102DC000D2B21A70FB685B6A5A1CFB685A62FB68D5
:102DD0001B8D013B9AB2FB681A85FB685B8D9BB229
:102DE000013B9AB2FB685A85FB681B685B6903F07C
:102DF0000403042B24D1FB681B8D032B07D1FB6834
:102E00001B681A68FB681B6822F480621A60FB6802
:102E10001B681A69FB685B6AD2B21A70FB685B6A4E
:102E20005A1CFB685A62FB681B8D013B9AB2FB6817
:102E30001A85FB685B8D9BB2013B9AB2FB685A8591
:102E4000FB681B8D002B7FF488AEFB68202283F883
:102E50003D20FB68002283F83E20FB68002283F8B7
:102E60003C20002300E0022318462837BD4680BDE1
:102E7000040001000000002089B5F81480B588B076
:102E800002AFF8607A603B600B467B81FB68DB6ACF
:102E90007B617B69082B06D07B69012B03D07B69A2
:102EA00013F5803F08D1FB681B681A68FB681B6834
:102EB00042F480721A600BE0FB681B6B122B07D187
:102EC000FB681B681A68FB681B6842F480721A6012
:102ED0003B6800937B6800224FF00111F86800F016
:102EE0001DF90346002B0DD0FB681B681B6803F41B
:102EF0008073B3F5807F03D1FB684FF400721A64CE
:102F0000032335E0FB681B69B3F5804F08D17B894B
:102F1000DBB21A46FB681B6802F0FE021A611BE076
:102F20007B89DB11DBB203F00603DBB263F00F0336
:102F3000DAB2FB681B681A613B687A680E49F86868
:102F400000F066F90346002B01D0012310E07B89D5
:102F5000DAB2FB681B681A613B687A680749F8684F
:102F600000F056F90346002B01D0012300E00023B6
:102F700018461837BD4680BD080001000200010058
:102F800080B588B002AFF8607A603B600B467B8109
:102F9000FB68DB6A7B61FB681B681A68FB681B685F
:102FA00042F480621A607B69082B06D07B69012B92
:102FB00003D07B6913F5803F08D1FB681B681A6852
:102FC000FB681B6842F480721A600BE0FB681B6BA5
:102FD000112B07D1FB681B681A68FB681B6842F459
:102FE00080721A603B6800937B6800224FF00111E9
:102FF000F86800F093F80346002B0DD0FB681B68BF
:103000001B6803F48073B3F5807F03D1FB684FF432
:1030100000721A64032379E0FB681B69B3F5804FE3
:1030200008D17B89DBB243F00103DAB2FB681B688D
:103030001A615FE07B89DB11DBB203F00603DBB2D0
:1030400063F00F03DAB2FB681B681A613B687A68A9
:103050003049F86800F0DCF80346002B01D001236A
:1030600054E07B89DAB2FB681B681A613B687A68B6
:103070002949F86800F0CCF80346002B01D0012361
:1030800044E000233B61FB681B685B693B61FB68B4
:103090001B689B693B613B69FB681B681A68FB689E
:1030A0001B6842F480721A603B6800937B680022C0
:1030B0004FF00111F86800F031F80346002B0DD0F5
:1030C000FB681B681B6803F48073B3F5807F03D132
:1030D000FB684FF400721A64032317E07B89DB114D
:1030E000DBB203F00603DBB263F00E03DAB2FB6877
:1030F0001B681A613B687A680749F86800F088F82D
:103100000346002B01D0012300E0002318461837A6
:10311000BD4680BD080001000200010080B584B0FA
:1031200000AFF860B9603B601346FB7148E03B6854
:10313000B3F1FF3F44D0FEF7D7FC0246BB69D31A78
:103140003A689A4202D33B68002B39D1BB681B0C0A
:10315000DBB2012B0DD1FB681B685B69DA43BB68EE
:1031600013409BB2002B0CBF01230023DBB21A4695
:103170000CE0FB681B689B69DA43BB6813409BB299
:10318000002B0CBF01230023DBB21A46FB799A42C5
:1031900016D1FB6800221A63FB68202283F83D20C9
:1031A000FB68002283F83E20FB681B6C43F0200282
:1031B000FB681A64FB68002283F83C20012323E0AB
:1031C000BB681B0CDBB2012B0DD1FB681B685B6974
:1031D000DA43BB6813409BB2002B0CBF01230023D2
:1031E000DBB21A460CE0FB681B689B69DA43BB68DC
:1031F00013409BB2002B0CBF01230023DBB21A4605
:10320000FB799A4293D0002318461037BD4680BD03
:1032100080B584B000AFF860B9607A603B6071E05F
:10322000FB681B685B6903F48063B3F5806F23D18F
:10323000FB681B681A68FB681B6842F400721A601E
:10324000FB681B686FF480625A61FB6800221A6396
:10325000FB68202283F83D20FB68002283F83E2093
:10326000FB681B6C43F00402FB681A64FB680022D5
:1032700083F83C20012367E07B68B3F1FF3F41D036
:10328000FEF732FC02463B68D31A7A689A4202D3B0
:103290007B68002B36D1BB681B0CDBB2012B0CD139
:1032A000FB681B685B69DA43BB6813409BB2002B69
:1032B00014BF01230023DBB20BE0FB681B689B6992
:1032C000DA43BB6813409BB2002B14BF01230023D9
:1032D000DBB2002B16D0FB6800221A63FB682022A9
:1032E00083F83D20FB68002283F83E20FB681B6CBE
:1032F00043F02002FB681A64FB68002283F83C203C
:10330000012321E0BB681B0CDBB2012B0CD1FB6855
:103310001B685B69DA43BB6813409BB2002B14BF88
:1033200001230023DBB20BE0FB681B689B69DA43D7
:10333000BB6813409BB2002B14BF01230023DBB2F8
:10334000002B7FF46DAF002318461037BD4680BDBB
:1033500080B584B000AFF860B9607A6034E0F86896
:1033600000F0E3F80346002B01D0012334E0BB68F2
:10337000B3F1FF3F28D0FEF7B7FB02467B68D31AB4
:10338000BA689A4202D3BB68002B1DD1FB681B6848
:103390005B6903F08003802B16D0FB6800221A6360
:1033A000FB68202283F83D20FB68002283F83E2042
:1033B000FB681B6C43F02002FB681A64FB68002268
:1033C00083F83C20012307E0FB681B685B6903F07E
:1033D0008003802BC3D1002318461037BD4680BD23
:1033E00080B584B000AFF860B9607A6034E0F86806
:1033F00000F09BF80346002B01D0012334E0BB68AA
:10340000B3F1FF3F28D0FEF76FFB02467B68D31A6B
:10341000BA689A4202D3BB68002B1DD1FB681B68B7
:103420005B6903F00403042B16D0FB6800221A63C7
:10343000FB68202283F83D20FB68002283F83E20B1
:10344000FB681B6C43F02002FB681A64FB680022D7
:1034500083F83C20012307E0FB681B685B6903F0ED
:103460000403042BC3D1002318461037BD4680BD8A
:1034700080B584B000AFF860B9607A6049E0FB685D
:103480001B685B6903F01003102B19D1FB681B68E4
:103490006FF010025A61FB6800221A63FB68202259
:1034A00083F83D20FB68002283F83E20FB681A6CFD
:1034B000FB681A64FB68002283F83C20012330E09B
:1034C000FEF712FB02467B68D31ABA689A4202D30F
:1034D000BB68002B1DD1FB681B685B6903F04003D0
:1034E000402B16D0FB6800221A63FB68202283F869
:1034F0003D20FB68002283F83E20FB681B6C43F0F4
:103500002002FB681A64FB68002283F83C20012338
:1035100007E0FB681B685B6903F04003402BAED1FA
:10352000002318461037BD4680BD80B483B000AF7D
:1035300078607B681B685B6903F48063B3F5806F18
:103540001BD17B681B686FF480625A617B68002224
:103550001A637B68202283F83D207B68002283F871
:103560003E207B681B6C43F004027B681A647B6816
:10357000002283F83C20012300E0002318460C378A
:10358000BD4680BC7047000080B586B000AF786053
:103590007B68002B01D101236CE27B681B6803F080
:1035A0000103002B00F08780924B5B6803F00C0353
:1035B000042B0CD08F4B5B6803F00C03082B12D14B
:1035C0008C4B5B6803F48033B3F5803F0BD1894BA0
:1035D0001B6803F40033002B6CD07B685B68002B06
:1035E00068D1012346E27B685B68B3F5803F06D172
:1035F000804B1B687F4A43F4803313602EE07B6866
:103600005B68002B0CD17B4B1B687A4A23F4803318
:103610001360784B1B68774A23F4802313601DE006
:103620007B685B68B3F5A02F0CD1724B1B68714AA5
:1036300043F4802313606F4B1B686E4A43F480335E
:1036400013600BE06B4B1B686A4A23F480331360F2
:10365000684B1B68674A23F4802313607B685B68B0
:10366000002B13D0FEF740FA386108E0FEF73CFA71
:1036700002463B69D31A642B01D90323FAE15D4B5F
:103680001B6803F40033002BF0D014E0FEF72CFA93
:10369000386108E0FEF728FA02463B69D31A642B2A
:1036A00001D90323E6E1534B1B6803F40033002BDD
:1036B000F0D100E000BF7B681B6803F00203002B21
:1036C00063D04C4B5B6803F00C03002B0BD0494BD1
:1036D0005B6803F00C03082B1CD1464B5B6803F4BA
:1036E0008033002B16D1434B1B6803F00203002BE1
:1036F00005D07B681B69012B01D00123BAE13D4B4A
:103700001B6823F0F8027B685B69DB0039491343CF
:103710000B603AE07B681B69002B20D0364B0122FE
:103720001A60FEF7E1F9386108E0FEF7DDF90246BC
:103730003B69D31A022B01D903239BE12D4B1B6854
:1037400003F00203002BF0D02A4B1B6823F0F80291
:103750007B685B69DB00274913430B6015E0264B50
:1037600000221A60FEF7C0F9386108E0FEF7BCF9E4
:1037700002463B69D31A022B01D903237AE11D4B80
:103780001B6803F00203002BF0D17B681B6803F079
:103790000803002B3AD07B689B69002B19D0174B8C
:1037A00001221A60FEF7A0F9386108E0FEF79CF9E3
:1037B00002463B69D31A022B01D903235AE10D4B70
:1037C0005B6A03F00203002BF0D0012000F0CCFA7A
:1037D0001CE00A4B00221A60FEF786F938610FE000
:1037E000FEF782F902463B69D31A022B08D903235C
:1037F00040E100BF0010024000004242800442420B
:103800009E4B5B6A03F00203002BE9D17B681B68C7
:1038100003F00403002B00F0A6800023FB75974BF8
:10382000DB6903F08053002B0DD1944BDB69934A85
:1038300043F08053D361914BDB6903F08053BB604D
:10384000BB680123FB758E4B1B6803F48073002B50
:1038500018D18B4B1B688A4A43F480731360FEF7C0
:1038600043F9386108E0FEF73FF902463B69D31A95
:10387000642B01D90323FDE0814B1B6803F48073A3
:10388000002BF0D07B68DB68012B06D17B4B1B6AD9
:103890007A4A43F0010313622DE07B68DB68002B5A
:1038A0000CD1764B1B6A754A23F001031362734BEC
:1038B0001B6A724A23F0040313621CE07B68DB6816
:1038C000052B0CD16D4B1B6A6C4A43F00403136249
:1038D0006A4B1B6A694A43F0010313620BE0674BB2
:1038E0001B6A664A23F001031362644B1B6A634A36
:1038F00023F0040313627B68DB68002B15D0FEF70E
:10390000F3F838610AE0FEF7EFF802463B69D31A94
:1039100041F28832934201D90323ABE0574B1B6A33
:1039200003F00203002BEED014E0FEF7DDF838615F
:103930000AE0FEF7D9F802463B69D31A41F2883211
:10394000934201D9032395E04C4B1B6A03F0020319
:10395000002BEED1FB7D012B05D1484BDB69474A9B
:1039600023F08053D3617B68DB69002B00F08180FA
:10397000424B5B6803F00C03082B61D07B68DB696A
:10398000022B46D13F4B00221A60FEF7ADF838619A
:1039900008E0FEF7A9F802463B69D31A022B01D9C9
:1039A000032367E0354B1B6803F00073002BF0D155
:1039B0007B681B6AB3F5803F08D1304B5B6823F40A
:1039C00000327B689B682D4913434B602B4B5B682F
:1039D00023F474127B68196A7B685B6A0B4327497E
:1039E00013434B60274B01221A60FEF77DF83861C4
:1039F00008E0FEF779F802463B69D31A022B01D999
:103A0000032337E01D4B1B6803F00073002BF0D03D
:103A10002FE01C4B00221A60FEF766F8386108E0C0
:103A2000FEF762F802463B69D31A022B01D9032341
:103A300020E0124B1B6803F00073002BF0D118E05C
:103A40007B68DB69012B01D1012313E00B4B5B6821
:103A5000FB60FB6803F480327B681B6A9A4206D1E4
:103A6000FB6803F470127B685B6A9A4201D0012301
:103A700000E0002318461837BD4680BD0010024004
:103A8000007000406000424280B584B000AF7860B2
:103A900039607B68002B01D10123D0E06A4B1B68A1
:103AA00003F007033A689A4210D9674B1B6823F06A
:103AB000070265493B6813430B60634B1B6803F0C7
:103AC00007033A689A4201D00123B8E07B681B687B
:103AD00003F00203002B20D07B681B6803F0040373
:103AE000002B05D0594B5B68584A43F4E0635360A0
:103AF0007B681B6803F00803002B05D0534B5B6801
:103B0000524A43F460535360504B5B6823F0F00219
:103B10007B689B684D4913434B607B681B6803F0CF
:103B20000103002B40D07B685B68012B07D1474B1A
:103B30001B6803F40033002B15D101237FE07B6861
:103B40005B68022B07D1414B1B6803F00073002B0D
:103B500009D1012373E03D4B1B6803F00203002BE6
:103B600001D101236BE0394B5B6823F003027B68D2
:103B70005B68364913434B60FDF7B6FFF8600AE017
:103B8000FDF7B2FF0246FB68D31A41F28832934236
:103B900001D9032353E02D4B5B6803F00C027B68D3
:103BA0005B689B009A42EBD1274B1B6803F007032D
:103BB0003A689A4210D2244B1B6823F0070222492C
:103BC0003B6813430B60204B1B6803F007033A6804
:103BD0009A4201D0012332E07B681B6803F00403A2
:103BE000002B08D0194B5B6823F4E0627B68DB682C
:103BF000164913434B607B681B6803F00803002BD6
:103C000009D0124B5B6823F460527B681B69DB00B0
:103C10000E4913434B6000F021F802460B4B5B68E2
:103C20001B0903F00F030A49CB5C22FA03F3094A8C
:103C30001360094B1B681846FDF714FF0023184654
:103C40001037BD4680BD00BF00200240001002407A
:103C50003C800008000000200400002080B487B0F1
:103C600000AF0023FB600023BB6000237B610023C7
:103C70007B6000233B611E4B5B68FB60FB6803F0CD
:103C80000C03042B02D0082B03D027E0194B3B6117
:103C900027E0FB689B0C03F00F03174AD35C7B60A3
:103CA000FB6803F48033002B10D0114B5B685B0C76
:103CB00003F00103114AD35CBB607B680D4A02FB31
:103CC00003F2BB68B2FBF3F37B6104E07B680C4A50
:103CD00002FB03F37B617B693B6102E0054B3B61C7
:103CE00000BF3B6918461C37BD4680BC704700BF0B
:103CF0000010024000127A0054800008648000081E
:103D000000093D0080B400AF024B1B681846BD4659
:103D100080BC70470000002080B500AFFFF7F2FFC5
:103D20000246054B5B681B0A03F007030349CB5CA3
:103D300022FA03F3184680BD001002404C800008B0
:103D400080B500AFFFF7DEFF0246054B5B68DB0A7C
:103D500003F007030349CB5C22FA03F3184680BD46
:103D6000001002404C80000880B485B000AF78603D
:103D70000A4B1B680A4AA2FB03235B0A7A6802FB10
:103D800003F3FB6000BFFB685A1EFA60002BF9D1F9
:103D900000BF00BF1437BD4680BC70470000002044
:103DA000D34D621080B582B000AF78607B68002B85
:103DB00001D1012341E07B6893F83D30DBB2002B59
:103DC00006D17B68002283F83C207868FDF708FC68
:103DD0007B68022283F83D207B681A687B68043385
:103DE0001946104600F05CFA7B68012283F84620F1
:103DF0007B68012283F83E207B68012283F83F2004
:103E00007B68012283F840207B68012283F84120EF
:103E10007B68012283F842207B68012283F84320DB
:103E20007B68012283F844207B68012283F84520C7
:103E30007B68012283F83D20002318460837BD46E1
:103E400080BD000080B485B000AF78607B6893F8D7
:103E50003D30DBB2012B01D001233AE07B68022226
:103E600083F83D207B681B68DA687B681B6842F03A
:103E70000102DA607B681B68184A93420ED07B68A7
:103E80001B68B3F1804F09D07B681B68144A9342CA
:103E900004D07B681B68134A934211D17B681B686E
:103EA0009B6803F00703FB60FB68062B10D07B6860
:103EB0001B681A687B681B6842F001021A6007E001
:103EC0007B681B681A687B681B6842F001021A60F5
:103ED000002318461437BD4680BC7047002C0140B3
:103EE000000400400008004080B584B000AF786056
:103EF0007B681B68DB68FB607B681B681B69BB60B9
:103F0000BB6803F00203002B20D0FB6803F0020320
:103F1000002B1BD07B681B686FF002021A617B6864
:103F200001221A777B681B689B6903F00303002B4F
:103F300003D0786800F098F905E0786800F08BF914
:103F4000786800F09AF97B6800221A77BB6803F062
:103F50000403002B20D0FB6803F00403002B1BD0CC
:103F60007B681B686FF004021A617B6802221A7773
:103F70007B681B689B6903F44073002B03D078684F
:103F800000F072F905E0786800F065F9786800F0F3
:103F900074F97B6800221A77BB6803F00803002BD2
:103FA00020D0FB6803F00803002B1BD07B681B6844
:103FB0006FF008021A617B6804221A777B681B681D
:103FC000DB6903F00303002B03D0786800F04CF9A1
:103FD00005E0786800F03FF9786800F04EF97B68FA
:103FE00000221A77BB6803F01003002B20D0FB6877
:103FF00003F01003002B1BD07B681B686FF01002CE
:104000001A617B6808221A777B681B68DB6903F4F6
:104010004073002B03D0786800F026F905E078683B
:1040200000F019F9786800F028F97B6800221A7707
:10403000BB6803F00103002B0CD0FB6803F0010305
:10404000002B07D07B681B686FF001021A6178684B
:10405000FDF7D8F9BB6803F08003002B0CD0FB6898
:1040600003F08003002B07D07B681B686FF0800291
:104070001A61786800F07FFABB6803F04003002BF8
:104080000CD0FB6803F04003002B07D07B681B6853
:104090006FF040021A61786800F0F8F8BB6803F02E
:1040A0002003002B0CD0FB6803F02003002B07D06B
:1040B0007B681B686FF020021A61786800F052FA82
:1040C00000BF1037BD4680BD80B584B000AF7860BA
:1040D00039600023FB737B6893F83C30012B01D1DE
:1040E0000223B4E07B68012283F83C207B68022233
:1040F00083F83D207B681B689B68BB60BB6823F02E
:104100007703BB60BB6823F47F43BB607B681B689D
:10411000BA689A603B681B68B3F5005F3ED0B3F5A0
:10412000005F00F28780B3F5805F00F08680B3F512
:10413000805F7FD8702B1AD0702B7BD8602B50D02B
:10414000602B77D8502B3CD0502B73D8402B58D0B5
:10415000402B6FD8302B64D0302B6BD8202B60D005
:10416000202B67D8002B5CD0102B5AD062E07B68E4
:1041700018683B6899683B685A683B68DB6800F0E0
:1041800074F97B681B689B68BB60BB6843F077036E
:10419000BB607B681B68BA689A604FE07B681868F0
:1041A0003B6899683B685A683B68DB6800F05DF9DA
:1041B0007B681B689A687B681B6842F480429A603F
:1041C0003CE07B6818683B6859683B68DB681A46C6
:1041D00000F0D4F87B681B685021184600F02BF9DA
:1041E0002CE07B6818683B6859683B68DB681A46B6
:1041F00000F0F2F87B681B686021184600F01BF99C
:104200001CE07B6818683B6859683B68DB681A46A5
:1042100000F0B4F87B681B684021184600F00BF9E9
:104220000CE07B681A683B681B681946104600F072
:1042300002F903E00123FB7300E000BF7B68012269
:1042400083F83D207B68002283F83C20FB7B1846E6
:104250001037BD4680BD80B483B000AF786000BF2A
:104260000C37BD4680BC704780B483B000AF786027
:1042700000BF0C37BD4680BC704780B483B000AF30
:10428000786000BF0C37BD4680BC704780B483B0F7
:1042900000AF786000BF0C37BD4680BC704700009F
:1042A00080B485B000AF786039607B681B68FB60C4
:1042B0007B682F4A93420BD07B68B3F1804F07D0C5
:1042C0007B682C4A934203D07B682B4A934208D1E7
:1042D000FB6823F07003FB603B685B68FA6813437C
:1042E000FB607B68224A93420BD07B68B3F1804F1E
:1042F00007D07B681F4A934203D07B681E4A9342D3
:1043000008D1FB6823F44073FB603B68DB68FA6804
:104310001343FB60FB6823F080023B685B69134337
:10432000FB607B68FA681A603B689A687B68DA62AF
:104330003B681A687B689A627B680D4A934203D196
:104340003B681A697B681A637B6801225A617B6843
:104350001B6903F00103002B05D07B681B6923F068
:1043600001027B681A6100BF1437BD4680BC7047EC
:10437000002C0140000400400008004080B487B0D9
:1043800000AFF860B9607A60FB681B6A7B61FB680C
:104390001B6A23F00102FB681A62FB689B693B61A0
:1043A0003B6923F0F0033B617B681B013A691343CF
:1043B0003B617B6923F00A037B617A69BB68134325
:1043C0007B61FB683A699A61FB687A691A6200BF8F
:1043D0001C37BD4680BC704780B487B000AFF86022
:1043E000B9607A60FB681B6A7B61FB681B6A23F01B
:1043F0001002FB681A62FB689B693B613B6923F40E
:1044000070433B617B681B033A6913433B617B69E3
:1044100023F0A0037B61BB681B017A6913437B61B6
:10442000FB683A699A61FB687A691A6200BF1C37B7
:10443000BD4680BC704780B485B000AF78603960FD
:104440007B689B68FB60FB6823F07003FB603A6845
:10445000FB68134343F00703FB607B68FA689A60CC
:1044600000BF1437BD4680BC704780B487B000AF32
:10447000F860B9607A603B60FB689B687B617B6930
:1044800023F47F437B613B681A027B681A43BB6855
:1044900013437A6913437B61FB687A699A6000BFB2
:1044A0001C37BD4680BC704780B485B000AF7860D3
:1044B00039607B6893F83C30012B01D1022346E040
:1044C0007B68012283F83C207B68022283F83D2030
:1044D0007B681B685B68FB607B681B689B68BB60D4
:1044E000FB6823F07003FB603B681B68FA681343AA
:1044F000FB607B681B68FA685A607B681B68164A19
:1045000093420ED07B681B68B3F1804F09D07B6863
:104510001B68124A934204D07B681B68104A93427E
:104520000CD1BB6823F08003BB603B685B68BA6852
:104530001343BB607B681B68BA689A607B68012282
:1045400083F83D207B68002283F83C200023184636
:104550001437BD4680BC7047002C01400004004069
:104560000008004080B483B000AF786000BF0C3713
:10457000BD4680BC704780B483B000AF786000BF98
:104580000C37BD4680BC704780B582B000AF786004
:104590007B68002B01D1012342E07B6893F8413016
:1045A000DBB2002B06D17B68002283F840207868BC
:1045B000FDF73AF87B68242283F841207B681B686A
:1045C000DA687B681B6822F40052DA60786800F0D1
:1045D000B7FD7B681B681A697B681B6822F49042F0
:1045E0001A617B681B685A697B681B6822F02A0283
:1045F0005A617B681B68DA687B681B6842F400526A
:10460000DA607B6800225A647B68202283F84120AC
:104610007B68202283F842207B6800225A630023B3
:1046200018460837BD4680BD80B58AB002AFF86035
:10463000B9603B601346FB8000237B61FB6893F805
:104640004130DBB2202B75D1BB68002B02D0FB8838
:10465000002B01D101236EE0FB6800225A64FB6845
:10466000212283F84120FDF73FFA7861FB68FA8840
:104670009A84FB68FA88DA84FB689B68B3F5805FEC
:1046800008D1FB681B69002B04D10023FB61BB68C8
:10469000BB6103E0BB68FB610023BB612EE03B68AC
:1046A00000937B6900228021F86800F01CFB034620
:1046B000002B05D0FB68202283F8412003233AE039
:1046C000FB69002B0BD1BB691B881A46FB681B6872
:1046D000C2F308025A60BB690233BB6107E0FB69A1
:1046E0001A78FB681B685A60FB690133FB61FB6841
:1046F000DB8C9BB2013B9AB2FB68DA84FB68DB8CF3
:104700009BB2002BCBD13B6800937B6900224021F8
:10471000F86800F0E8FA0346002B05D0FB68202279
:1047200083F84120032306E0FB68202283F8412020
:10473000002300E0022318462037BD4680BD80B527
:1047400084B000AFF860B9601346FB80FB6893F853
:104750004230DBB2202B12D1BB68002B02D0FB8889
:10476000002B01D101230BE0FB6800221A63FB88B8
:104770001A46B968F86800F00FFB034600E0022310
:1047800018461037BD4680BD80B5BAB000AF78601E
:104790007B681B681B68C7F8E4307B681B68DB68B4
:1047A000C7F8E0307B681B685B69C7F8DC30002322
:1047B000C7F8D8300023C7F8D430D7F8E43003F076
:1047C0000F03C7F8D830D7F8D830002B0FD1D7F85F
:1047D000E43003F02003002B09D0D7F8E03003F0D9
:1047E0002003002B03D0786800F0ECFB5BE2D7F8E5
:1047F000D830002B00F0DE80D7F8DC3003F0010366
:10480000002B06D1D7F8E03003F49073002B00F0B2
:10481000D180D7F8E43003F00103002B0BD0D7F898
:10482000E03003F48073002B05D07B685B6C43F0B1
:1048300001027B685A64D7F8E43003F00403002BCC
:104840000BD0D7F8DC3003F00103002B05D07B68D8
:104850005B6C43F002027B685A64D7F8E43003F0E3
:104860000203002B0BD0D7F8DC3003F00103002B40
:1048700005D07B685B6C43F004027B685A64D7F810
:10488000E43003F00803002B11D0D7F8E03003F038
:104890002003002B05D1D7F8DC3003F00103002BF7
:1048A00005D07B685B6C43F008027B685A647B68C8
:1048B0005B6C002B00F0F281D7F8E43003F02003AA
:1048C000002B08D0D7F8E03003F02003002B02D0F3
:1048D000786800F077FB7B681B685B6903F0400336
:1048E000002B14BF01230023DBB2C7F8D4307B6850
:1048F0005B6C03F00803002B03D1D7F8D430002BF6
:104900004FD0786800F081FA7B681B685B6903F020
:104910004003002B41D07B681B681433C7F89C30E0
:10492000D7F89C3053E8003FC7F89830D7F8983054
:1049300023F04003C7F8D0307B681B681433D7F8E6
:10494000D020C7F8A820C7F8A430D7F8A410D7F80B
:10495000A82041E80023C7F8A030D7F8A030002BEA
:10496000D9D17B68DB6B002B13D07B68DB6B7E4A75
:104970005A637B68DB6B1846FDF788FA0346002B09
:1049800016D07B68DB6B5B6B7A68D26B10469847FE
:104990000EE0786800F093F90AE0786800F08FF98B
:1049A00006E0786800F08BF97B6800225A6475E1B4
:1049B00000BF73E17B681B6B012B40F04F81D7F880
:1049C000E43003F01003002B00F04881D7F8E0300A
:1049D00003F01003002B00F041810023BB607B68D3
:1049E0001B681B68BB607B681B685B68BB60BB683F
:1049F0007B681B685B6903F04003002B00F0B68006
:104A00007B68DB6B1B685B68A7F8BE30B7F8BE300D
:104A1000002B00F045817B689B8DB7F8BE209A4241
:104A200080F03E817B68B7F8BE20DA857B68DB6B5F
:104A30009B69202B00F088807B681B680C33C7F8CB
:104A40008830D7F8883053E8003FC7F88430D7F86B
:104A5000843023F48073C7F8B8307B681B680C334C
:104A6000D7F8B820C7F89420C7F89030D7F890103E
:104A7000D7F8942041E80023C7F88C30D7F88C3061
:104A8000002BD9D17B681B6814337B677B6F53E89D
:104A9000003F3B673B6F23F00103C7F8B4307B68EE
:104AA0001B681433D7F8B420C7F88020FB67F96F70
:104AB000D7F8802041E80023BB67BB6F002BE1D112
:104AC0007B681B6814333B663B6E53E8003FFB6515
:104AD000FB6D23F04003C7F8B0307B681B681433CC
:104AE000D7F8B020FA66BB66B96EFA6E41E80023CB
:104AF0007B667B6E002BE3D17B68202283F842200B
:104B00007B6800221A637B681B680C33FB64FB6CB8
:104B100053E8003FBB64BB6C23F01003C7F8AC3014
:104B20007B681B680C33D7F8AC20BA657B65796D60
:104B3000BA6D41E800233B653B6D002BE3D17B68F8
:104B4000DB6B1846FDF766F97B6802225A637B68C7
:104B50009A8D7B68DB8D9BB2D31A9BB2194678681D
:104B600000F0B6F89CE000BFCF4E00087B689A8D3D
:104B70007B68DB8D9BB2D31AA7F8CE307B68DB8DC8
:104B80009BB2002B00F08E80B7F8CE30002B00F0E7
:104B900089807B681B680C33BB63BB6B53E8003FA9
:104BA0007B637B6B23F49073C7F8C8307B681B680A
:104BB0000C33D7F8C8207A643B64396C7A6C41E8CE
:104BC0000023FB63FB6B002BE3D17B681B68143372
:104BD0007B627B6A53E8003F3B623B6A23F0010340
:104BE000C7F8C4307B681B681433D7F8C4203A6315
:104BF000FB62F96A3A6B41E80023BB62BB6A002B97
:104C0000E3D17B68202283F842207B6800221A636C
:104C10007B681B680C333B613B6953E8003FFB60DA
:104C2000FB6823F01003C7F8C0307B681B680C33A7
:104C3000D7F8C020FA61BB61B969FA6941E800237D
:104C40007B617B69002BE3D17B6802225A63B7F852
:104C5000CE301946786800F03BF823E0D7F8E4300E
:104C600003F08003002B09D0D7F8E03003F0800375
:104C7000002B03D0786800F03EF914E0D7F8E43058
:104C800003F04003002B0ED0D7F8E03003F04003D0
:104C9000002B08D0786800F07DF904E000BF02E046
:104CA00000BF00E000BFE837BD4680BD80B483B0E0
:104CB00000AF786000BF0C37BD4680BC704780B441
:104CC00083B000AF786000BF0C37BD4680BC704732
:104CD00080B483B000AF78600B467B8000BF0C3798
:104CE000BD4680BC704780B586B000AFF860B96043
:104CF0003B601346FB713BE03B6AB3F1FF3F37D0AB
:104D0000FCF7F2FE02463B68D31A3A6A9A4202D393
:104D10003B6A002B01D103233AE0FB681B68DB6888
:104D200003F00403002B23D0BB68802B20D0BB688A
:104D3000402B1DD0FB681B681B6803F00803082B81
:104D400016D100237B61FB681B681B687B61FB68D5
:104D50001B685B687B617B69F86800F056F8FB684C
:104D600008225A64FB68002283F8402001230FE0E8
:104D7000FB681B681A68BB681340BA689A420CBF8C
:104D800001230023DBB21A46FB799A42B4D00023F8
:104D900018461837BD4680BD80B485B000AFF860B6
:104DA000B9601346FB80FB68BA689A62FB68FA88B0
:104DB0009A85FB68FA88DA85FB6800225A64FB68EA
:104DC000222283F84220FB681B69002B07D0FB6876
:104DD0001B68DA68FB681B6842F48072DA60FB6863
:104DE0001B685A69FB681B6842F001025A61FB6844
:104DF0001B68DA68FB681B6842F02002DA60002357
:104E000018461437BD4680BC704780B495B000AFDB
:104E100078607B681B680C337B637B6B53E8003FD7
:104E20003B633B6B23F49073FB647B681B680C3320
:104E3000FA6C3A64FB63F96B3A6C41E80023BB639C
:104E4000BB6B002BE5D17B681B6814333B623B6A6C
:104E500053E8003FFB61FB6923F00103BB647B68FF
:104E60001B681433BA6CFA62BB62B96AFA6A41E829
:104E700000237B627B6A002BE5D17B681B6B012BD7
:104E800019D17B681B680C33FB60FB6853E8003F5B
:104E9000BB60BB6823F010037B647B681B680C332A
:104EA0007A6CBA617B617969BA6941E800233B6138
:104EB0003B69002BE5D17B68202283F842207B6888
:104EC00000221A6300BF5437BD4680BC704780B5CE
:104ED00084B000AF78607B685B6AFB60FB6800228F
:104EE000DA85FB680022DA84F868FFF7E8FE00BF85
:104EF0001037BD4680BD80B485B000AF78607B6858
:104F000093F84130DBB2212B3ED17B689B68B3F52F
:104F1000805F14D17B681B69002B10D17B681B6AF2
:104F2000FB60FB681B881A467B681B68C2F308029B
:104F30005A607B681B6A9A1C7B681A6208E07B686F
:104F40001B6A591C7A6811621A787B681B685A6060
:104F50007B68DB8C9BB2013B9BB27A681946D1849B
:104F6000002B0FD17B681B68DA687B681B6822F016
:104F70008002DA607B681B68DA687B681B6842F035
:104F80004002DA60002300E0022318461437BD46D1
:104F900080BC704780B582B000AF78607B681B68CA
:104FA000DA687B681B6822F04002DA607B682022A6
:104FB00083F841207868FFF779FE00231846083708
:104FC000BD4680BD80B58CB000AF78607B6893F83B
:104FD0004230DBB2222B40F0AE807B689B68B3F599
:104FE000805F17D17B681B69002B13D10023FB6204
:104FF0007B689B6ABB627B681B685B689BB2C3F380
:1050000008039AB2BB6A1A807B689B6A9A1C7B6809
:105010009A6226E07B689B6AFB620023BB627B6826
:105020009B68B3F5805F07D07B689B68002B0AD133
:105030007B681B69002B06D17B681B685B68DAB252
:10504000FB6A1A7008E07B681B685B68DBB203F0E0
:105050007F03DAB2FB6A1A707B689B6A5A1C7B6812
:105060009A627B68DB8D9BB2013B9BB27A681946E2
:10507000D185002B5DD17B681B68DA687B681B6873
:1050800022F02002DA607B681B68DA687B681B68A4
:1050900022F48072DA607B681B685A697B681B683F
:1050A00022F001025A617B68202283F842207B684B
:1050B00000225A637B681B6B012B35D17B68002271
:1050C0001A637B681B680C337B617B6953E8003F84
:1050D0003B613B6923F010037B627B681B680C33E8
:1050E0007A6A3A62FB61F9693A6A41E80023BB6176
:1050F000BB69002BE5D17B681B681B6803F01003BC
:10510000102B0AD10023FB607B681B681B68FB60C7
:105110007B681B685B68FB60FB687B689B8D19463E
:105120007868FFF7D5FD02E07868FCF775F9002391
:1051300002E0002300E0022318463037BD4680BD60
:1051400080B584B000AF78607B681B681B6923F46E
:1051500040517B68DA687B681B680A431A617B6888
:105160009A687B681B691A437B685B691343BB6061
:105170007B681B68DB6823F4B05323F00C037A6868
:105180001268B9680B43D3607B681B685B6923F4C2
:1051900040717B689A697B681B680A435A617B6827
:1051A0001B682C4A934203D1FEF7CAFDF86002E067
:1051B000FEF7B2FDF860FA6813469B0013449A00AC
:1051C0001A447B685B689B00B2FBF3F3224AA2FBA4
:1051D00003235B091901FA6813469B0013449A00E4
:1051E0001A447B685B689B00B2FBF3F21A4BA3FB8B
:1051F00002035B09642000FB03F3D31A1B01323363
:10520000154AA2FB03235B0903F0F0031944FA6873
:1052100013469B0013449A001A447B685B689B000A
:10522000B2FBF3F20C4BA3FB02035B09642000FB0F
:1052300003F3D31A1B013233074AA2FB03235B0992
:1052400003F00F027B681B680A449A6000BF1037A6
:10525000BD4680BD003801401F85EB51014B1868E9
:10526000704700BF0C00002070B500260C4D0D4C9F
:10527000641BA410A64209D102F0BCFE00260A4D10
:105280000A4C641BA410A64205D170BD55F8043B1E
:1052900098470136EEE755F8043B98470136F2E7A8
:1052A0004C8400084C8400084C840008508400089A
:1052B00003460244934200D1704703F8011BF9E70B
:1052C000002B2DE9F0471F46BBBF03F100431F46EB
:1052D00000232D2388B01446129A109D1370149B3E
:1052E000DDF84CA023F02008B8F1460F05D0B8F146
:1052F000450F00D10135022300E0032307AA0492E1
:1053000006AACDE902A2CDE9003522463B4600F0CF
:10531000E7FCB8F1470F064602D1119BDB0722D507
:10532000B8F1460F06EB050910D13378302B0AD1BE
:105330000022002320463946FBF736FB18B9C5F199
:105340000105CAF80050DAF8003099440022002321
:1053500020463946FBF728FB08B1CDF81C903022D7
:10536000079B4B4507D33046079B159A9B1B136041
:1053700008B0BDE8F087591C07911A70F0E70346A2
:10538000F7B5002903F8022BB6BF2D222B22494284
:10539000092942702BDD0DF10704A4460A2791FB71
:1053A000F7F60A46A64607FB1615632A05F13005EF
:1053B000314604F1FF340EF8015CF0DC3031AEF11F
:1053C000020504F8011C2946441C61450AD30DF16D
:1053D0000902A2EB0E02654588BF00221344181A89
:1053E00003B0F0BD11F8012B04F8012FEDE73023D5
:1053F00030318370C170031DF1E700002DE9F04FDB
:1054000091B00C46DDF8688016461F46054601F04F
:1054100055FA036818460993FAF79AFE00230E938B
:10542000D8F800300A90073323F0070303F108028D
:1054300094F81890D4F800B0C8F80020D3E90023FD
:10544000C4E91223D4E9128A2AF000430B934FF0E7
:10545000FF3240469C4B0B99FBF7D8FA70BB4FF0DC
:10546000FF324046984B0B99FBF7B2FA30BB002253
:10547000002340465146FBF7A1FA10B12D2384F8D2
:105480004330924B9248B9F1470F94BF98468046FB
:1054900003234FF0000A23612BF0040323603346FB
:1054A0002146284600970FAA00F0D4F9013040F0B9
:1054B00090804FF0FF3011B0BDE8F08F4246534668
:1054C00040465146FBF7A2FA48B1BAF1000FB8BF07
:1054D0002D238048B8BF84F843307F4BD3E76368FF
:1054E00009F0DF015A1C42D10623636000220692B4
:1054F0000EAACDE904920DAA4BF4806303920DF13C
:105500003302CDE9013223606368424600932846A6
:1055100053460B91FFF7D4FE0B99804647290D990E
:1055200008D1C81C02DB6368994240DDA9F1020979
:105530005FFA89F9B9F1650F1FD84A46013904F1BC
:1055400050000D91FFF71BFF0E9A82461318012A97
:10555000236102DC2268D20701D5013323619DF863
:105560003330002B9BD02D2384F8433097E7472915
:10557000BCD1002BBAD10123B7E7B9F1660F18D11E
:10558000002963680BDD216113B92268D00702D5B9
:1055900001330B4423614FF0000AA165DFE713B923
:1055A0002268D20701D50233F4E70123F2E74FF076
:1055B00067090E9B994205DB23682161D807EAD56C
:1055C0004B1CE7E70029CCBF0122C1F102021344C2
:1055D000E0E723685A0507D4236942463146284646
:1055E000B84701302BD164E7B9F1650F40F2DD8097
:1055F000D4E9120100220023FBF7D6F9002833D0AA
:10560000012331462846354AB84701303FF451AFAF
:10561000DDE90D239A4202DB2368D8070FD5DDE9C7
:10562000092331462846B84701303FF442AF4FF0D6
:10563000000804F11A090E9B013B434509DC23686D
:105640009B0700F10281E0680F9B9842B8BF1846A3
:1056500031E701234A4631462846B84701303FF436
:1056600028AF08F10108E6E70D9B002B38DC012389
:1056700031462846194AB84701303FF41AAFDDE9F0
:105680000D23134302D12368D907D8D5DDE90923B7
:1056900031462846B84701303FF40BAF4FF00009C0
:1056A00004F11A0A0D9B5B424B4501DC0E9B94E70B
:1056B0000123524631462846B84701303FF4F9AE3F
:1056C00009F10109EEE700BFFFFFEF7F6C800008E2
:1056D0007080000878800008748000087C800008D2
:1056E0000E9AA36D9A42A8BF1A46002A914637DC4B
:1056F0004FF0000B29EAE97904F11A02D4F858A016
:10570000AAEB09035B4533DCDDE90D239A423BDB61
:105710002368DA0738D40E9A0D99A2EB0A03A2EB9C
:1057200001099945A8BF9946B9F1000F34DC4FF043
:10573000000829EAE97904F11A0ADDE90D239B1A28
:10574000A3EB090343457FF77AAF01235246314665
:105750002846B84701303FF4ACAE08F10108ECE749
:105760001346314642462846B8470130C0D1A0E62C
:105770000123314628460B92B84701303FF499AED9
:105780000B9A0BF1010BB9E73146DDE909232846F5
:10579000B8470130BFD18CE64B463146284608EB6E
:1057A0000A02B8470130C2D183E60E9A012A01DC11
:1057B000DB0737D50123424631462846B84701303A
:1057C0003FF477AEDDE9092331462846B84701307A
:1057D0003FF46FAED4E9120100220023FBF7E4F896
:1057E000D8B90E9B08F10102013B31462846B84763
:1057F00001300ED15DE601234A4631462846B847BE
:1058000001303FF456AE08F101080E9B013B4345C1
:10581000F1DC534604F15002E0E64FF0000804F1D9
:105820001A09F2E701234246DFE701234A463146DF
:105830002846B84701303FF43CAE08F10108E36860
:105840000F995B1A4345F0DCFDE64FF0000804F1C8
:105850001909F4E72DE9F047164699468A680B695D
:1058600007469342B8BF1346336091F843200C4675
:10587000DDF820800AB1013333602368990642BF06
:10588000336802333360256815F0060506D104F14C
:10589000190AE36832689B1AAB4228DC94F843206B
:1058A000131E226818BF012392062DD4494638469C
:1058B00004F14302C047013020D02368E56803F0BB
:1058C0000603042B18BF002532684FF00006A368BA
:1058D00008BFAD1A226908BF25EAE5759342C4BF27
:1058E0009B1AED181A34B5421AD1002008E00123A2
:1058F000524649463846C047013003D14FF0FF3089
:10590000BDE8F0870135C4E73020E11881F8430095
:105910005A1C94F845102244023382F84310C5E71C
:105920000123224649463846C0470130E6D00136B9
:10593000D9E700002DE9FF470C46277E9146782FD6
:1059400080469A460C9904F1430207D8622F0AD880
:10595000002F00F0D980582F00F0A48004F14206F7
:1059600084F842703AE0A7F16303152BF6D801A042
:1059700050F823F0CD590008E15900085D5900089E
:105980005D5900085D5900085D590008E15900089B
:105990005D5900085D5900085D5900085D5900080F
:1059A000EF5A0008115A0008D15A00085D59000842
:1059B0005D590008115B00085D590008115A000884
:1059C0005D5900085D590008D95A00080B6804F1B8
:1059D00042061A1D1B680A6084F842300123A4E0C5
:1059E000256808682E0600F104030AD505680B60D7
:1059F000002D03DA2D236D4284F843300A235E48DC
:105A000019E015F0400F05680B6018BF2DB2EFE7E5
:105A10000B682568181D0860280601D51D6802E07E
:105A20006906FBD51D886F2F0CBF08230A23524837
:105A3000002184F843106668002EA8BF2168A66084
:105A4000A4BF21F0040121600DB9002E4DD01646EF
:105A5000B5FBF3F103FB1157C75D06F8017D2F4637
:105A6000BB420D46F4D9082B0BD12368DF0708D5BC
:105A7000236961689942DEBF302306F8013C06F1D4
:105A8000FF36921B22614B4621464046CDF800A0CE
:105A900003AAFFF7DFFE01304CD14FF0FF3004B016
:105AA000BDE8F087344884F845700E68236856F8DE
:105AB000045B1F060E6014D5D90744BF43F02003D2
:105AC00023601DB9236823F0200323601023AFE770
:105AD000236843F0200323607823284884F8453066
