:020000040800F2
:1000000000500020391500082D1300083313000894
:10001000391300083F1300084513000800000000D2
:10002000000000000000000000000000515A00081D
:100030004B13000800000000315C0008795C0008E8
:100040008115000881150008811500088115000838
:100050008115000881150008811500088115000828
:100060008115000881150008811500088115000818
:100070008115000881150008591300088115000832
:1000800081150008811500088115000881150008F8
:1000900081150008811500088115000881150008E8
:1000A00081150008811500088115000881150008D8
:1000B00081150008811500086D13000881150008DE
:1000C00081150008811500088115000881150008B8
:1000D00081150008811500088115000881150008A8
:1000E0008115000881150008811500080000000036
:1000F0000000000000000000000000000000000000
:0C01000000000000000000005FF808F1A3
:1001100010B5054C237833B9044B13B10448AFF341
:1001200000800123237010BD740000200000000037
:100130007C6A000808B5034B1BB103490348AFF3C1
:10014000008008BD00000000780000207C6A0008E4
:10015000034613F8012B002AFBD1181A0138704707
:1001600081F0004102E000BF83F0004330B54FEA68
:1001700041044FEA430594EA050F08BF90EA020FD5
:100180001FBF54EA000C55EA020C7FEA645C7FEA68
:10019000655C00F0E2804FEA5454D4EB5555B8BF8B
:1001A0006D420CDD2C4480EA020281EA030382EAFC
:1001B000000083EA010180EA020281EA0303362D8E
:1001C00088BF30BD11F0004F4FEA01314FF4801C61
:1001D0004CEA113102D0404261EB410113F0004F73
:1001E0004FEA03334CEA133302D0524263EB43032A
:1001F00094EA050F00F0A780A4F10104D5F1200EC8
:100200000DDB02FA0EFC22FA05F2801841F1000122
:1002100003FA0EF2801843FA05F359410EE0A5F1F6
:1002200020050EF1200E012A03FA0EFC28BF4CF027
:10023000020C43FA05F3C01851EBE37101F00045DD
:1002400007D54FF0000EDCF1000C7EEB00006EEBEA
:100250000101B1F5801F1BD3B1F5001F0CD3490874
:100260005FEA30004FEA3C0C04F101044FEA4452CB
:1002700012F5800F80F09A80BCF1004F08BF5FEA52
:10028000500C50F1000041EB045141EA050130BD32
:100290005FEA4C0C404141EB0101013C28BFB1F544
:1002A000801FE9D291F0000F04BF01460020B1FA8F
:1002B00081F308BF2033A3F10B03B3F120020CDA62
:1002C0000C3208DD02F1140CC2F10C0201FA0CF040
:1002D00021FA02F10CE002F11402D8BFC2F1200CA5
:1002E00001FA02F120FA0CFCDCBF41EA0C0190405B
:1002F000E41AA2BF01EB0451294330BD6FEA0404A4
:100300001F3C1CDA0C340EDC04F11404C4F120028E
:1003100020FA04F001FA02F340EA030021FA04F3A0
:1003200045EA030130BDC4F10C04C4F1200220FAF7
:1003300002F001FA04F340EA0300294630BD21FA35
:1003400004F0294630BD94F0000F83F4801306BFFB
:1003500081F480110134013D4EE77FEA645C18BFEF
:100360007FEA655C29D094EA050F08BF90EA020F86
:1003700005D054EA000C04BF1946104630BD91EA7E
:10038000030F1EBF0021002030BD5FEA545C05D181
:100390004000494128BF41F0004130BD14F58004C0
:1003A0003CBF01F5801130BD01F0004545F0FE4134
:1003B00041F470014FF0000030BD7FEA645C1ABF69
:1003C000194610467FEA655C1CBF0B46024650EAA0
:1003D000013406BF52EA033591EA030F41F40021CC
:1003E00030BD00BF90F0000F04BF0021704730B552
:1003F0004FF4806404F132044FF000054FF0000127
:1004000050E700BF90F0000F04BF0021704730B5E7
:100410004FF4806404F1320410F0004548BF4042BC
:100420004FF000013EE700BF42004FEAE2014FEA11
:1004300031014FEA02701FBF12F07F4393F07F4FEC
:1004400081F06051704732F07F4208BF704793F0EF
:100450007F4F04BF41F40021704730B54FF4607402
:1004600001F0004521F000411CE700BF50EA010205
:1004700008BF704730B54FF000050AE050EA0102AE
:1004800008BF704730B511F0004502D5404261EB1E
:1004900041014FF4806404F132045FEA915C3FF45F
:1004A000D8AE4FF003025FEADC0C18BF03325FEAFC
:1004B000DC0C18BF033202EBDC02C2F1200300FAAD
:1004C00003FC20FA02F001FA03FE40EA0E0021FAD2
:1004D00002F11444BDE600BF70B54FF0FF0C4CF4C0
:1004E000E06C1CEA11541DBF1CEA135594EA0C0F72
:1004F00095EA0C0F00F0DEF82C4481EA030621EAAD
:100500004C5123EA4C5350EA013518BF52EA0335E7
:1005100041F4801143F4801338D0A0FB02CE4FF099
:100520000005E1FB02E506F00042E0FB03E54FF0C9
:100530000006E1FB03569CF0000F18BF4EF0010EC1
:10054000A4F1FF04B6F5007F64F5407404D25FEABD
:100550004E0E6D4146EB060642EAC62141EA555170
:100560004FEAC52040EA5E504FEACE2EB4F1FD0CB2
:1005700088BFBCF5E06F1ED8BEF1004F08BF5FEA30
:10058000500E50F1000041EB045170BD06F00046E2
:1005900046EA010140EA020081EA0301B4EB5C048F
:1005A000C2BFD4EB0C0541EA045170BD41F4801187
:1005B0004FF0000E013C00F3AB8014F1360FDEBFAC
:1005C000002001F0004170BDC4F10004203C35DA88
:1005D0000C341BDC04F11404C4F1200500FA05F30B
:1005E00020FA04F001FA05F240EA020001F00042AC
:1005F00021F0004110EBD37021FA04F642EB060122
:100600005EEA430E08BF20EAD37070BDC4F10C044B
:10061000C4F1200500FA04F320FA05F001FA04F20F
:1006200040EA020001F0004110EBD37041F10001FB
:100630005EEA430E08BF20EAD37070BDC4F1200506
:1006400000FA05F24EEA020E20FA04F301FA05F26E
:1006500043EA020321FA04F001F0004121FA04F216
:1006600020EA020000EBD3705EEA430E08BF20EAE6
:10067000D37070BD94F0000F0FD101F00046400020
:1006800041EB010111F4801F08BF013CF7D041EAA2
:10069000060195F0000F18BF704703F000465200A6
:1006A00043EB030313F4801F08BF013DF7D043EA77
:1006B0000603704794EA0C0F0CEA135518BF95EA2D
:1006C0000C0F0CD050EA410618BF52EA4306D1D1B4
:1006D00081EA030101F000414FF0000070BD50EAD3
:1006E000410606BF1046194652EA430619D094EA5D
:1006F0000C0F02D150EA013613D195EA0C0F05D147
:1007000052EA03361CBF104619460AD181EA03019A
:1007100001F0004141F0FE4141F470014FF0000052
:1007200070BD41F0FE4141F4780170BD70B54FF0ED
:10073000FF0C4CF4E06C1CEA11541DBF1CEA13556D
:1007400094EA0C0F95EA0C0F00F0A7F8A4EB05044F
:1007500081EA030E52EA03354FEA013100F0888046
:100760004FEA03334FF0805545EA131343EA12630F
:100770004FEA022245EA111545EA10654FEA0026C4
:100780000EF000419D4208BF964244F1FD0404F57D
:10079000407402D25B084FEA3202B61A65EB0305D9
:1007A0005B084FEA32024FF480104FF4002CB6EB96
:1007B000020E75EB030E22BFB61A754640EA0C0016
:1007C0005B084FEA3202B6EB020E75EB030E22BF56
:1007D000B61A754640EA5C005B084FEA3202B6EB97
:1007E000020E75EB030E22BFB61A754640EA9C0056
:1007F0005B084FEA3202B6EB020E75EB030E22BF26
:10080000B61A754640EADC0055EA060E18D04FEAE3
:10081000051545EA16754FEA06164FEAC30343EA83
:1008200052734FEAC2025FEA1C1CC0D111F4801F50
:100830000BD141EA00014FF000004FF0004CB6E749
:1008400011F4801F04BF01430020B4F1FD0C88BFE8
:10085000BCF5E06F3FF6AFAEB5EB030C04BFB6EBF3
:10086000020C5FEA500C50F1000041EB045170BDE6
:100870000EF0004E4EEA113114EB5C04C2BFD4EB13
:100880000C0541EA045170BD41F480114FF0000E97
:10089000013C90E645EA060E8DE60CEA135594EA13
:1008A0000C0F08BF95EA0C0F3FF43BAF94EA0C0F16
:1008B0000AD150EA01347FF434AF95EA0C0F7FF48B
:1008C00025AF104619462CE795EA0C0F06D152EADF
:1008D00003353FF4FDAE1046194622E750EA4106C3
:1008E00018BF52EA43067FF4C5AE50EA41047FF4D4
:1008F0000DAF52EA43057FF4EBAE12E74FEA410237
:10090000B2F1E04324BFB3F5001CDCF1FE5C0DD96D
:1009100001F0004C4FEAC0024CEA5070B2F1004FB7
:1009200040EB830008BF20F00100704711F0804FBA
:1009300021D113F13872BCBF01F00040704741F47F
:1009400080114FEA5252C2F11802C2F1200C10FA83
:100950000CF320FA02F018BF40F001004FEAC12367
:100960004FEAD32303FA0CFC40EA0C0023FA02F30B
:100970004FEA4303CCE77FEA625307D150EA0133E1
:100980001EBF4FF0FE4040F44000704701F00040B1
:1009900040F0FE4040F40000704700BF80F000408F
:1009A00002E000BF81F0004142001FBF5FEA410347
:1009B00092EA030F7FEA226C7FEA236C6AD04FEA47
:1009C0001262D2EB1363C1BFD2184140484041408C
:1009D000B8BF5B42192B88BF704710F0004F40F43E
:1009E000000020F07F4018BF404211F0004F41F45A
:1009F000000121F07F4118BF494292EA030F3FD026
:100A0000A2F1010241FA03FC10EB0C00C3F1200338
:100A100001FA03F100F0004302D5494260EB4000C7
:100A2000B0F5000F13D3B0F1807F06D340084FEA32
:100A3000310102F10102FE2A51D2B1F1004F40EB27
:100A4000C25008BF20F0010040EA0300704749008F
:100A500040EB0000013A28BFB0F5000FEDD2B0FA2C
:100A600080FCACF1080CB2EB0C0200FA0CF0AABF4F
:100A700000EBC25052421843BCBFD04018437047ED
:100A800092F0000F81F4000106BF80F400000132F3
:100A9000013BB5E74FEA41037FEA226C18BF7FEACA
:100AA000236C21D092EA030F04D092F0000F08BF0C
:100AB0000846704790EA010F1CBF0020704712F0F3
:100AC0007F4F04D1400028BF40F00040704712F132
:100AD00000723CBF00F50000704700F0004343F097
:100AE000FE4040F4000070477FEA226216BF0846CD
:100AF0007FEA23630146420206BF5FEA412390EA90
:100B0000010F40F4800070474FF0000304E000BF85
:100B100010F0004348BF40425FEA000C08BF704736
:100B200043F0964301464FF000001CE050EA0102FA
:100B300008BF70474FF000030AE000BF50EA01020F
:100B400008BF704711F0004302D5404261EB4101FC
:100B50005FEA010C02BF84460146002043F0B64321
:100B600008BFA3F18053A3F50003BCFA8CF2083A46
:100B7000A3EBC25310DB01FA02FC634400FA02FC4F
:100B8000C2F12002BCF1004F20FA02F243EB020056
:100B900008BF20F00100704702F1200201FA02FCB8
:100BA000C2F1200250EA4C0021FA02F243EB0200AB
:100BB00008BF20EADC70704780B584B000AF3B1DF1
:100BC00000221A605A609A60184B194A1A60174B33
:100BD00000229A60154B00221A73144B00221A75DA
:100BE000124B4FF46022DA61104B00225A600F4B17
:100BF00001221A610D4800F0F7FC0346002B01D0DA
:100C000000F0FEFA00237B600123BB600023FB6041
:100C10003B1D1946054800F0ABFF0346002B01D0F1
:100C200000F0EEFA00BF1037BD4680BDB044002092
:100C30000024014080B588B000AF786007F1100350
:100C400000221A605A609A60DA607B681B68144A56
:100C5000934221D1134B9B69124A43F40073936171
:100C6000104B9B6903F40073FB60FB680D4B9B69A1
:100C70000C4A43F0040393610A4B9B6903F004039D
:100C8000BB60BB6801233B6103237B6107F1100359
:100C90001946054801F0CEFB00BF2037BD4680BD98
:100CA00000240140001002400008014080B582B0DD
:100CB00000AF0C4B5B690B4A43F001035361094BD6
:100CC0005B6903F001037B607B68002205210E2035
:100CD00001F097F90E2001F0B0F900BF0837BD46CA
:100CE00080BD00BF0010024080B588B002AF3F4A0F
:100CF00007F10C031268114619800233120C1A70A6
:100D000007F10C026423009303237021384801F09B
:100D100059FE502004F030F83A1D64230093072355
:100D20007021334801F04CFF3B795BB2002B58DB5C
:100D30007B791A03BB791B011343FA791209D2B2EA
:100D400013437B61FB791B0403F470223B7A1B0283
:100D500013437A7A13433B617869FFF7D5FE034664
:100D60001846FFF761FB4FF00002224BFFF7DEFC55
:100D700002460B46104619464FF000021E4BFFF785
:100D8000ABFB02460B4610461946FFF7B7FD03467C
:100D90001A4A13603869FFF7B7FE03461846FFF793
:100DA00043FB4FF00002134BFFF7C0FC02460B461B
:100DB000104619464FF00002114BFFF78DFB02461B
:100DC0000B46104619464FF000020E4BFFF7CCF9C8
:100DD00002460B4610461946FFF790FD03460A4AA5
:100DE000136000BF1837BD4680BD00BFB86A000859
:100DF000E4440020000030410000594094000020ED
:100E000000006940000049409000002080B582B099
:100E100000AF104800F0C0FC0A210E4800F096FD1B
:100E20000C4800F099FE0346FB800A4800F062FD82
:100E3000FB88642202FB03F3074A82FB03121A4475
:100E4000D212DB179B1A9BB264339BB21846083749
:100E5000BD4680BDB04400208100088080B485B0CC
:100E600000AFF860B9607A60FB68064A1A60BB6838
:100E7000054A1A607B6880221A6000BF1437BD469D
:100E800080BC70479C00002050010020B0B596B097
:100E900000AF1D4B07F13C041D460FCD0FC495E874
:100EA000070084E8070007F13C030021184603F01F
:100EB00017FF0346154A1360154B07F120041D4622
:100EC0000FCD0FC495E8070084E8070007F1200361
:100ED0000021184603F004FF03460E4A13600E4B30
:100EE0003C1D1D460FCD0FC495E8070084E80700A0
:100EF0003B1D0021184603F0F3FE0346074A13602A
:100F000000BF5837BD46B0BDBC6A0008E0440020B1
:100F1000D86A000838450020F46A0008844500209B
:100F200080B582B000AF7860012003F025FFFBE7B9
:100F300080B582B000AF7860FFF7D6FEFFF766FF9E
:100F400003461A46034B1A804FF4FA6003F014FF6D
:100F5000F2E700BF98000020B0B5A0B004AF786001
:100F6000154B1B681846FFF75FFA04460D46134BF6
:100F70001B681846FFF758FA02460B4610490988C5
:100F800007F10C000291CDE9002322462B460D49C2
:100F900005F0B4F907F10C031846FFF7D9F803463A
:100FA0009AB207F10C031946074803F033FC4FF4DB
:100FB000FA6003F0E1FED3E79000002094000020E7
:100FC00098000020106B00083C45002080B485B0DC
:100FD00000AF144B9B69134A43F020039361114BFC
:100FE0009B6903F02003FB60FB680E4B9B690D4A75
:100FF00043F0040393610B4B9B6903F00403BB6054
:10100000BB68084B9B69074A43F008039361054B93
:101010009B6903F008037B607B6800BF1437BD4603
:1010200080BC70470010024080B500AF124B134ADD
:101030001A60114B124A5A600F4B00229A600E4BF5
:101040000022DA600C4B4FF480421A610A4B0022F6
:101050005A61094B00229A61074B0022DA61064B64
:1010600000221A62044801F069FB0346002B01D0FC
:1010700000F0C6F800BF80BDE444002000540040EA
:10108000A086010080B588B000AF786007F110033A
:1010900000221A605A609A60DA607B681B68154A01
:1010A000934223D1144B9B69134A43F00803936185
:1010B000114B9B6903F00803FB60FB68C0233B6195
:1010C00012237B610323FB6107F1100319460B48D0
:1010D00001F0B0F9084BDB69074A43F40013D36110
:1010E000054BDB6903F40013BB60BB6800BF20370E
:1010F000BD4680BD0054004000100240000C01407D
:1011000080B500AF00F03EFA00F00FF8FFF75EFF89
:10111000FFF7CCFD00F070F9FFF74EFDFFF784FFFD
:10112000FFF7B4FE03F0D5FDFEE780B594B000AF45
:1011300007F1280328220021184605F003F807F1DB
:10114000140300221A605A609A60DA601A613B1D2B
:1011500000221A605A609A60DA600123BB624FF481
:101160008033FB6200233B630123BB6302237B6468
:101170004FF48033BB640023FB6407F12803184657
:1011800002F010FB0346002B01D000F039F80F23CA
:101190007B610223BB610023FB614FF480633B62F0
:1011A00000237B6207F114030021184602F07AFD48
:1011B0000346002B01D000F023F802237B600023BC
:1011C000FB603B1D184602F02BFF0346002B01D0AD
:1011D00000F016F800BF5037BD4680BD80B582B024
:1011E00000AF78607B681B68044A934201D100F02D
:1011F000DFF900BF0837BD4680BD00BF00080040D2
:1012000080B400AF72B600BFFEE7000080B584B0C6
:1012100000AF184B9B69174A43F001039361154BCC
:101220009B6903F00103BB60BB68124BDB69114A89
:1012300043F08053D3610F4BDB6903F080537B6035
:101240007B6800220F216FF0010000F0DAFE0A4BEC
:101250005B68FB60FB6823F0E063FB60FB6843F0C6
:101260000073FB60044AFB68536000BF1037BD4643
:1012700080BD00BF001002400000014080B58CB06E
:1012800000AF78600023FB620023BB620022796814
:101290001E2000F0B6FE1E2000F0CFFE1F4BDB69C3
:1012A0001E4A43F00403D3611C4BDB6903F00403C3
:1012B000FB60FB6807F1100207F1140311461846A2
:1012C00002F060FE02F036FE03465B00FB62FB6A42
:1012D000134AA2FB03239B0C013BBB62114B124A36
:1012E0001A60104B40F2E732DA600E4ABB6A536074
:1012F0000C4B00221A610B4B00229A60094802F045
:10130000FBFF0346002B04D1064803F04DF80346CB
:1013100000E0012318463037BD4680BD0010024072
:1013200083DE1B43884500200008004080B400AFE6
:10133000FEE780B400AFFEE780B400AFFEE780B404
:1013400000AFFEE780B400AFFEE780B400AF00BF9F
:10135000BD4680BC7047000080B500AF024800F079
:1013600035FF00BF80BD00BFD045002080B500AF75
:10137000024803F06BF800BF80BD00BF8845002025
:1013800080B586B000AF7860144A154BD31A7B61E4
:101390007B693B61134B1B68002B02D1114B124A36
:1013A0001A60104B1A687B6813443A699A4207D254
:1013B00004F08EFE03460C221A604FF0FF3309E062
:1013C000084B1B68FB60074B1A687B681344054A8F
:1013D0001360FB6818461837BD4680BD00500020DA
:1013E00000040000500300202846002080B400AF15
:1013F00000BFBD4680BC704780B500AF114B124A9C
:101400001A60104B4FF4E1325A600E4B00229A6082
:101410000C4B0022DA600B4B00221A61094B0C22A4
:101420005A61084B00229A61064B0022DA61054896
:1014300003F0A0F90346002B01D0FFF7E1FE00BF47
:1014400080BD00BF3C4500200038014080B588B019
:1014500000AF786007F1100300221A605A609A60AA
:10146000DA607B681B682F4A934257D12E4B9B69E9
:101470002D4A43F4804393612B4B9B6903F48043D3
:10148000FB60FB68284B9B69274A43F00403936188
:10149000254B9B6903F00403BB60BB684FF40073EA
:1014A0003B6102237B610323FB6107F110031946B3
:1014B0001E4800F0BFFF4FF480633B6100237B6157
:1014C0000023BB6107F110031946184800F0B2FF72
:1014D000174B184A1A60164B10225A60144B002200
:1014E0009A60134B8022DA60114B00221A61104B74
:1014F00000225A610E4B00229A610D4B0022DA61E4
:101500000B4800F0A9FD0346002B01D0FFF778FE41
:101510007B68074A9A63064A7B68536200BF20379C
:10152000BD4680BD00380140001002400008014067
:10153000D045002044000240FFF758FF0B480C49FB
:101540000C4A002302E0D458C4500433C4188C421F
:10155000F9D3094A094C002301E013600432A24286
:10156000FBD304F0BBFDFFF7CBFD7047000000206C
:1015700074000020206C0008740000202846002021
:10158000FEE7000080B500AF084B1B68074A43F038
:1015900010031360032000F029FD0F20FFF76EFEFB
:1015A000FFF734FE0023184680BD00BF0020024034
:1015B00080B400AF054B1B781A46054B1B681344DB
:1015C000034A136000BFBD4680BC7047080000207E
:1015D0001446002080B400AF024B1B681846BD467D
:1015E00080BC70471446002080B586B000AF78609C
:1015F0000023FB7500233B610023BB600023FB60DD
:101600007B68002B01D10123BEE07B689B68002B27
:101610007B689B6A002B09D17B680022DA627B68B9
:10162000002283F824207868FFF704FB786800F034
:10163000F1FB0346FB757B689B6A03F01003002BEC
:1016400040F09980FB7D002B40F095807B689B6A81
:1016500023F4885323F0020343F002027B689A626A
:101660007B685A687B68DB691A437B681B7B5B007D
:101670001343BA681343BB607B689B68B3F5807FF4
:1016800003D07B689B68012B02D14FF4807300E08C
:1016900000233A6913433B617B681B7D012B19D101
:1016A0007B681B7B002B09D17B689B69013B5A033C
:1016B0003B69134343F400633B610BE07B689B6A27
:1016C00043F020027B689A627B68DB6A43F0010288
:1016D0007B68DA627B681B685B6823F469417B681E
:1016E0001B683A690A435A607B681B689A68284BF2
:1016F00013407A681268B9680B4393607B689B68F3
:10170000B3F5807F03D07B689B68012B04D17B6895
:101710001B69013B1B05FB607B681B68DB6A23F4CC
:1017200070017B681B68FA680A43DA627B681B6891
:101730009A68184B1340BA689A420BD17B68002212
:10174000DA627B689B6A23F0030343F001027B6843
:101750009A6218E07B689B6A23F0120343F0100240
:101760007B689A627B68DB6A43F001027B68DA621D
:101770000123FB7507E07B689B6A43F010027B68DE
:101780009A620123FB75FB7D18461837BD4680BD64
:10179000FDF7E1FFFE0E1FFF80B584B000AF78605B
:1017A0000023FB737B6893F82430012B01D10223C3
:1017B00098E07B68012283F82420786800F0D0FA52
:1017C0000346FB73FB7B002B40F087807B689B6AA2
:1017D00023F4407323F0010343F480727B689A6220
:1017E0007B681B68414A934205D1414B5B6803F417
:1017F0007023002B15D17B689B6A23F480127B68D1
:101800009A627B681B685B6803F48063002B26D0B8
:101810007B689B6A23F4405343F480527B689A624E
:101820001DE07B689B6A43F480127B689A627B6848
:101830001B682F4A934204D07B681B682B4A934253
:101840000DD12B4B5B6803F48063002B07D07B68C2
:101850009B6A23F4405343F480527B689A627B680E
:101860009B6A03F48053002B06D07B68DB6A23F06D
:1018700006027B68DA6202E07B680022DA627B683B
:10188000002283F824207B681B686FF002021A6034
:101890007B681B689B6803F46023B3F5602F13D14A
:1018A0007B681B68114A934205D1114B5B6803F4B6
:1018B0007023002B08D17B681B689A687B681B68C3
:1018C00042F4A0029A600CE07B681B689A687B680F
:1018D0001B6842F480129A6003E07B68002283F860
:1018E0002420FB7B18461037BD4680BD00280140F0
:1018F0000024014080B584B000AF78600023FB7302
:101900007B6893F82430012B01D102231AE07B6815
:10191000012283F82420786800F07CFA0346FB73E8
:10192000FB7B002B09D17B689B6A23F4885323F04F
:10193000010343F001027B689A627B68002283F80E
:101940002420FB7B18461037BD4680BD90B587B07C
:1019500000AF7860396000237B610023FB600023C7
:101960003B61FFF737FE78617B681B689B6803F477
:101970008073002B0BD07B689B6A43F020027B684E
:101980009A627B68002283F824200123D3E07B68DD
:101990001B685B6803F48073002B31D17B681B6884
:1019A000DB6A03F47003002B2AD121E03B68B3F11A
:1019B000FF3F1DD03B68002B07D0FFF70BFE024610
:1019C0007B69D31A3A689A4212D27B681B681B68FB
:1019D00003F00203002B0BD17B689B6A43F00402E7
:1019E0007B689A627B68002283F824200323A2E0AC
:1019F0007B681B681B6803F00203002BD6D070E0E5
:101A00004F4B1C68022002F0C1FB0346B4FBF3F20B
:101A10007B681B6819694B4B0B40002B18D17B6806
:101A20001B68D968484B0B40002B11D17B681B68A1
:101A30001969464B0B40002B08D17B681B68D9689D
:101A4000434B0B40002B01D1142320E029231EE03F
:101A50007B681B6819693D4B0B40002B06D17B68E6
:101A60001B68D9683A4B0B40002B0DD07B681B6874
:101A70001969384B0B40002B08D17B681B68D9686B
:101A8000344B0B40002B01D1542300E0FC2302FB1C
:101A900003F33B6121E03B68B3F1FF3F1AD03B68A1
:101AA000002B07D0FFF796FD02467B69D31A3A68F0
:101AB0009A420FD2FB683A699A420BD97B689B6ABB
:101AC00043F004027B689A627B68002283F824203A
:101AD000032330E0FB680133FB60FB683A699A42FC
:101AE000D9D87B681B686FF012021A607B689B6A0A
:101AF00043F400727B689A627B681B689B6803F4FE
:101B00006023B3F5602F15D17B681B7B002B11D1AF
:101B10007B689B6A23F480727B689A627B689B6A0D
:101B200003F48053002B05D17B689B6A43F00102CC
:101B30007B689A62002318461C37BD4690BD00BFE3
:101B40000000002024499224244992009224491242
:101B5000922449004992240080B483B000AF786099
:101B60007B681B68DB6C18460C37BD4680BC704731
:101B700080B485B000AF786039600023FB73002328
:101B8000BB607B6893F82430012B01D10223DCE099
:101B90007B68012283F824203B685B68062B1CD8F5
:101BA0007B681B68596B3B685A6813469B0013445B
:101BB000053B1F2202FA03F3DB4319403B68186818
:101BC0003B685A6813469B001344053B00FA03F236
:101BD0007B681B680A435A633CE03B685B680C2BDC
:101BE0001CD87B681B68196B3B685A6813469B00BE
:101BF0001344233B1F2202FA03F3DB4319403B68E3
:101C000018683B685A6813469B001344233B00FA4C
:101C100003F27B681B680A431A631BE07B681B683E
:101C2000D96A3B685A6813469B001344413B1F2204
:101C300002FA03F3DB4319403B6818683B685A68B3
:101C400013469B001344413B00FA03F27B681B6878
:101C50000A43DA623B681B68092B1CD97B681B6846
:101C6000D9683B681A6813465B0013441E3B072281
:101C700002FA03F3DB4319403B6898683B681A6833
:101C800013465B0013441E3B00FA03F27B681B689B
:101C90000A43DA6019E07B681B6819693B681A68B7
:101CA00013465B001344072202FA03F3DB43194097
:101CB0003B6898683B681A6813465B00134400FA57
:101CC00003F27B681B680A431A613B681B68102B90
:101CD00003D03B681B68112B32D17B681B681D4AFF
:101CE000934225D17B681B689B6803F40003002B9B
:101CF00026D17B681B689A687B681B6842F40002E7
:101D00009A603B681B68102B1AD1134B1B68134A4F
:101D1000A2FB03239A0C13469B0013445B00BB6099
:101D200002E0BB68013BBB60BB68002BF9D107E058
:101D30007B689B6A43F020027B689A620123FB73F5
:101D40007B68002283F82420FB7B18461437BD46AD
:101D500080BC7047002401400000002083DE1B434C
:101D600080B584B000AF78600023FB600023BB60C7
:101D70007B681B689B6803F00103012B40D07B68E4
:101D80001B689A687B681B6842F001029A601F4BCF
:101D90001B681F4AA2FB03239B0CBB6002E0BB68CD
:101DA000013BBB60BB68002BF9D1FFF713FCF86067
:101DB0001FE0FFF70FFC0246FB68D31A022B18D96D
:101DC0007B681B689B6803F00103012B11D07B68C3
:101DD0009B6A43F010027B689A627B68DB6A43F07F
:101DE00001027B68DA627B68002283F824200123E9
:101DF00007E07B681B689B6803F00103012BD8D1C7
:101E0000002318461037BD4680BD00BF00000020EB
:101E100083DE1B4380B584B000AF78600023FB6095
:101E20007B681B689B6803F00103012B2ED17B6844
:101E30001B689A687B681B6822F001029A60FFF7B2
:101E4000C9FBF8601BE0FFF7C5FB0246FB68D31A2D
:101E5000022B14D97B681B689B6803F00103012BDC
:101E60000DD17B689B6A43F010027B689A627B68A5
:101E7000DB6A43F001027B68DA62012307E07B68DA
:101E80001B689B6803F00103012BDCD0002318467C
:101E90001037BD4680BD000080B485B000AF7860CB
:101EA0007B6803F00703FB600C4BDB68BB60BA6820
:101EB0004FF6FF031340BB60FB681A02BB68134375
:101EC00043F0BF6343F40033BB60044ABB68D36094
:101ED00000BF1437BD4680BC704700BF00ED00E076
:101EE00080B400AF044BDB681B0A03F007031846FD
:101EF000BD4680BC704700BF00ED00E080B483B0F9
:101F000000AF0346FB7197F90730002B0BDBFB7921
:101F100003F01F02064997F907305B09012000FA18
:101F200002F241F8232000BF0C37BD4680BC704749
:101F300000E100E080B483B000AF03463960FB717C
:101F400097F90730002B0ADB3B68DAB20C4997F9A6
:101F500007301201D2B20B4483F800230AE03B6839
:101F6000DAB20849FB7903F00F03043B1201D2B245
:101F70000B441A7600BF0C37BD4680BC704700BFCB
:101F800000E100E000ED00E080B489B000AFF8604F
:101F9000B9607A60FB6803F00703FB61FB69C3F17A
:101FA0000703042B28BF0423BB61FB690433062B02
:101FB00002D9FB69033B00E000237B614FF0FF3255
:101FC000BB6902FA03F3DA43BB681A407B699A40A3
:101FD0004FF0FF317B6901FA03F3D9437B680B4073
:101FE000134318462437BD4680BC704780B582B085
:101FF00000AF78607868FFF74FFF00BF0837BD4635
:1020000080BD80B586B000AF0346B9607A60FB73CF
:1020100000237B61FFF764FF78617A68B9687869AB
:10202000FFF7B2FF024697F90F3011461846FFF747
:1020300081FF00BF1837BD4680BD80B582B000AFBC
:102040000346FB7197F907301846FFF757FF00BFAB
:102050000837BD4680BD000080B485B000AF786011
:102060000023FB607B68002B01D1012343E07B68E8
:102070001B681A46224B1344224AA2FB03231B0966
:102080009A007B681A647B681F4ADA637B680222C5
:1020900083F821207B681B681B68FB60FB6823F4C6
:1020A0007F5323F03003FB607B685A687B689B6832
:1020B0001A437B68DB681A437B681B691A437B6899
:1020C0005B691A437B689B691A437B68DB6913432E
:1020D000FA681343FB607B681B68FA681A607B68C8
:1020E00000229A637B68012283F821207B6800220A
:1020F00083F82020002318461437BD4680BC704763
:10210000F8FFFDBFCDCCCCCC0000024080B586B03E
:1021100000AFF860B9607A603B600023FB75FB6834
:1021200093F82030012B01D102234BE0FB68012200
:1021300083F82020FB6893F82130DBB2012B3AD1E1
:10214000FB68022283F82120FB6800229A63FB6867
:102150001B681A68FB681B6822F001021A603B6862
:102160007A68B968F86800F037F9FB68DB6A002B19
:1021700008D0FB681B681A68FB681B6842F00E02F7
:102180001A600FE0FB681B681A68FB681B6822F086
:1021900004021A60FB681B681A68FB681B6842F03F
:1021A0000A021A60FB681B681A68FB681B6842F029
:1021B00001021A6005E0FB68002283F82020022358
:1021C000FB75FB7D18461837BD4680BD80B584B0D1
:1021D00000AF78607B68DB6B1B68FB607B681B680B
:1021E0001B68BB607B681B6C04229A40FB68134031
:1021F000002B4FD0BB6803F00403002B4AD07B6850
:102200001B681B6803F02003002B07D17B681B6849
:102210001A687B681B6822F004021A607B681B68DE
:10222000664A934229D07B681B68654A934222D054
:102230007B681B68634A93421AD07B681B68624ABA
:10224000934212D07B681B68604A93420AD07B6835
:102250001B685F4A934202D14FF480030EE04FF0B7
:1022600080630BE04FF4802308E04FF4804305E0E7
:102270004FF4806302E0402300E00423554A53609A
:102280007B68DB6A002B00F094807B68DB6A7868EF
:1022900098478EE07B681B6C02229A40FB681340D3
:1022A000002B56D0BB6803F00203002B51D07B6893
:1022B0001B681B6803F02003002B0BD17B681B6895
:1022C0001A687B681B6822F00A021A607B68012288
:1022D00083F821207B681B68384A934229D07B68A9
:1022E0001B68374A934222D07B681B68354A934269
:1022F0001AD07B681B68344A934212D07B681B68F3
:10230000324A93420AD07B681B68314A934202D119
:102310004FF400130EE04FF000730BE04FF4003366
:1023200008E04FF4005305E04FF4007302E020236F
:1023300000E00223274A53607B68002283F82020B4
:102340007B689B6A002B34D07B689B6A78689847CF
:102350002FE07B681B6C08229A40FB681340002B1F
:1023600028D0BB6803F00803002B23D07B681B68D0
:102370001A687B681B6822F00E021A607B681A6C70
:102380007B68DB6B012101FA02F25A607B68012253
:102390009A637B68012283F821207B68002283F8FE
:1023A00020207B681B6B002B04D07B681B6B78683C
:1023B000984700BF00BF1037BD4680BD08000240EF
:1023C0001C0002403000024044000240580002401D
:1023D0006C0002400000024080B485B000AFF8609D
:1023E000B9607A603B60FB681A6CFB68DB6B0121AB
:1023F00001FA02F25A60FB681B683A685A60FB688F
:102400005B68102B08D1FB681B687A689A60FB68D0
:102410001B68BA68DA6007E0FB681B68BA689A60F4
:10242000FB681B687A68DA6000BF1437BD4680BC61
:102430007047000080B48BB000AF78603960002333
:102440007B6200233B6269E101227B6A02FA03F3AB
:10245000FB613B681B68FA691340BB61BA69FB69A1
:102460009A4240F058813B685B689A4A93425ED03A
:10247000984A934275D8984A934258D0964A9342C4
:102480006FD8964A934252D0944A934269D8944A5C
:1024900093424CD0924A934263D8924A934246D098
:1024A000904A93425DD8122B2AD8122B59D801A2F8
:1024B00052F823F02F250008092500081B250008E5
:1024C0005D250008632500086325000863250008D2
:1024D00063250008632500086325000863250008BC
:1024E00063250008632500086325000863250008AC
:1024F000632500086325000811250008252500082C
:10250000794A934213D02CE03B68DB683B6229E0B8
:102510003B68DB6804333B6224E03B68DB680833DC
:102520003B621FE03B68DB680C333B621AE03B68B0
:102530009B68002B02D104233B6213E03B689B683D
:10254000012B05D108233B627B68FA691A6109E017
:1025500008233B627B68FA695A6103E000233B620F
:1025600000E000BFBB69FF2B01D87B6801E07B68FE
:1025700004337B61BB69FF2B02D87B6A9B0002E0BE
:102580007B6A083B9B003B617B691A680F213B69B2
:1025900001FA03F3DB431A40396A3B6901FA03F39A
:1025A0001A437B691A603B685B6803F08053002B19
:1025B00000F0B1804D4B9B694C4A43F0010393619D
:1025C0004A4B9B6903F00103BB60BB68484A7B6AC6
:1025D0009B08023352F82330FB607B6A03F003034D
:1025E0009B000F2202FA03F3DB43FA681340FB60FF
:1025F0007B68404A934213D07B683F4A93420DD098
:102600007B683E4A934207D07B683D4A934201D1A2
:10261000032306E0042304E0022302E0012300E098
:1026200000237A6A02F0030292009340FA6813438F
:10263000FB602F497B6A9B080233FA6841F823202C
:102640003B685B6803F48013002B06D02D4B9A681F
:102650002C49BB6913438B6006E02A4B9A68BB691F
:10266000DB43284913408B603B685B6803F400132D
:10267000002B06D0234BDA682249BB691343CB6099
:1026800006E0204BDA68BB69DB431E491340CB6090
:102690003B685B6803F40033002B06D0194B5A6883
:1026A0001849BB6913434B6006E0164B5A68BB6977
:1026B000DB43144913404B603B685B6803F4803391
:1026C000002B21D00F4B1A680E49BB6913430B60D6
:1026D00021E000BF00003210000031100000221085
:1026E0000000211000001210000011100010024024
:1026F0000000014000080140000C014000100140B2
:1027000000140140000401400B4B1A68BB69DB4315
:10271000094913400B607B6A01337B623B681A688E
:102720007B6A22FA03F3002B7FF48EAE00BF00BF5A
:102730002C37BD4680BC70470004014080B584B092
:1027400000AF78607B68002B01D101232BE17B680F
:1027500093F83D30DBB2002B06D17B68002283F872
:102760003C207868FEF78EFC7B68242283F83D20AD
:102770007B681B681A687B681B6822F001021A607C
:102780007B681B681A687B681B6842F400421A6009
:102790007B681B681A687B681B6822F400421A6019
:1027A00001F0C8FBF8607B685B68814A934207D8F8
:1027B000FB68804A934294BF01230023DBB206E00A
:1027C000FB687D4A934294BF01230023DBB2002BB8
:1027D00001D00123E7E0FB68784AA2FB03239B0CAE
:1027E000BB607B681B685B6823F03F017B681B68EC
:1027F000BA680A435A607B681B681B6A23F03F0172
:102800007B685B686A4A934202D8BB68013309E07F
:10281000BB684FF4967202FB03F3694AA2FB0323E1
:102820009B0901337A6812680B4313627B681B684B
:10283000DB6923F44F4222F0FF027B685B685C494E
:102840008B4219D8FB68591E7B685B685B00B1FB43
:10285000F3F3591C40F6FC730B40002B0AD0FB68C5
:10286000591E7B685B685B00B1FBF3F30133C3F374
:102870000B0351E004234FE07B689B68002B11D1D0
:10288000FB68581E7B6859680B465B000B44B0FB25
:10289000F3F30133C3F30B03002B0CBF012300231D
:1028A000DBB212E0FB68581E7B6859680B469B0040
:1028B0000B4499000B44B0FBF3F30133C3F30B0358
:1028C000002B0CBF01230023DBB2002B01D001231E
:1028D00022E07B689B68002B0ED1FB68581E7B684A
:1028E00059680B465B000B44B0FBF3F30133C3F3B1
:1028F0000B0343F400430FE0FB68581E7B685968E4
:102900000B469B000B4499000B44B0FBF3F30133DF
:10291000C3F30B0343F44043796809681343CB6165
:102920007B681B681B6823F0C0017B68DA697B68E1
:102930001B6A1A437B681B680A431A607B681B6822
:102940009B6823F4034323F0FF037A6811697A68D4
:10295000D26811437A6812680B4393607B681B68E6
:10296000DB6823F0FF017B685A697B689B691A4327
:102970007B681B680A43DA607B681B681A687B689F
:102980001B6842F001021A607B6800221A647B68AF
:10299000202283F83D207B6800221A637B68002296
:1029A00083F83E20002318461037BD4680BD00BF87
:1029B000A08601007F841E00FF083D0083DE1B43CC
:1029C000D34D621080B588B002AFF8607A601A46C5
:1029D0000B467B8113463B81FEF7FCFD7861FB686B
:1029E00093F83D30DBB2202B40F0E0807B69009310
:1029F000192301227049F86800F09EFC0346002B61
:102A000001D00223D3E0FB6893F83C30012B01D1C5
:102A10000223CCE0FB68012283F83C20FB681B68A2
:102A20001B6803F00103012B07D0FB681B681A68C1
:102A3000FB681B6842F001021A60FB681B681A6899
:102A4000FB681B6822F400621A60FB68212283F88D
:102A50003D20FB68102283F83E20FB6800221A64A8
:102A6000FB687A685A62FB683A895A85FB685B8D15
:102A70009AB2FB681A85FB68504ADA6279897B69E9
:102A80003A6AF86800F008FB0346002B01D00123E6
:102A90008DE000233B61FB681B685B693B61FB6861
:102AA0001B689B693B613B6966E07A69396AF86833
:102AB00000F05CFD0346002B0DD0FB681B6C042B63
:102AC00007D1FB681B681A68FB681B6842F4007238
:102AD0001A6001236BE0FB685B6A1A78FB681B686D
:102AE0001A61FB685B6A5A1CFB685A62FB685B8D63
:102AF0009BB2013B9AB2FB685A85FB681B8D013B78
:102B00009AB2FB681A85FB681B685B6903F00403D3
:102B1000042B1BD1FB681B8D002B17D0FB685B6A55
:102B20001A78FB681B681A61FB685B6A5A1CFB68B1
:102B30005A62FB685B8D9BB2013B9AB2FB685A8577
:102B4000FB681B8D013B9AB2FB681A857A69396A6A
:102B5000F86800F053FD0346002B0DD0FB681B6C9A
:102B6000042B07D1FB681B681A68FB681B6842F4DA
:102B700000721A6001231AE0FB681B8D002B94D1B0
:102B8000FB681B681A68FB681B6842F400721A60D5
:102B9000FB68202283F83D20FB68002283F83E205A
:102BA000FB68002283F83C20002300E00223184643
:102BB0001837BD4680BD00BF020010000000FFFFB7
:102BC00080B58CB002AFF8607A601A460B467B8104
:102BD00013463B8100233B62FEF7FCFC7862FB68F6
:102BE00093F83D30DBB2202B40F04B827B6A0093A0
:102BF000192301227F49F86800F09EFB0346002B51
:102C000001D002233EE2FB6893F83C30012B01D156
:102C1000022337E2FB68012283F83C20FB681B6833
:102C20001B6803F00103012B07D0FB681B681A68BF
:102C3000FB681B6842F001021A60FB681B681A6897
:102C4000FB681B6822F400621A60FB68222283F88A
:102C50003D20FB68102283F83E20FB6800221A64A6
:102C6000FB687A685A62FB683A895A85FB685B8D13
:102C70009AB2FB681A85FB685F4ADA6279897B6AD7
:102C80003A6BF86800F08AFA0346002B01D0012362
:102C9000F8E1FB681B8D002B13D10023FB61FB685F
:102CA0001B685B69FB61FB681B689B69FB61FB69D7
:102CB000FB681B681A68FB681B6842F400721A60A4
:102CC000CCE1FB681B8D012B1ED1FB681B681A68C9
:102CD000FB681B6822F480621A6072B600BF002392
:102CE000BB61FB681B685B69BB61FB681B689B6918
:102CF000BB61BB69FB681B681A68FB681B6842F410
:102D000000721A6062B635E0FB681B8D022B1ED183
:102D1000FB681B681A68FB681B6842F400621A6053
:102D200072B600BF00237B61FB681B685B697B6137
:102D3000FB681B689B697B617B69FB681B681A6881
:102D4000FB681B6822F480621A6062B612E0FB68BE
:102D50001B681A68FB681B6842F480621A600023D3
:102D60003B61FB681B685B693B61FB681B689B6997
:102D70003B613B6972E1FB681B8D032B00F21F81F5
:102D8000FB681B8D012B23D17A6A396BF86800F040
:102D90007DFC0346002B01D0012373E1FB681B6817
:102DA0001A69FB685B6AD2B21A70FB685B6A5A1CCC
:102DB000FB685A62FB681B8D013B9AB2FB681A855F
:102DC000FB685B8D9BB2013B9AB2FB685A8545E17B
:102DD000FB681B8D022B52D17B6A00933B6B002258
:102DE0000649F86800F0A8FA0346002B08D0012332
:102DF00048E100BF020010000000FFFF04000100D6
:102E000072B600BFFB681B681A68FB681B6842F457
:102E100000721A60FB681B681A69FB685B6AD2B2B1
:102E20001A70FB685B6A5A1CFB685A62FB681B8D50
:102E3000013B9AB2FB681A85FB685B8D9BB2013B34
:102E40009AB2FB685A8562B600BFFB681B681A69B4
:102E5000FB685B6AD2B21A70FB685B6A5A1CFB683B
:102E60005A62FB681B8D013B9AB2FB681A85FB68AE
:102E70005B8D9BB2013B9AB2FB685A85EEE07B6AA0
:102E800000933B6B00228149F86800F055FA034635
:102E9000002B01D00123F5E0FB681B681A68FB6872
:102EA0001B6822F480621A6072B600BFFB681B6860
:102EB0001A69FB685B6AD2B21A70FB685B6A5A1CBB
:102EC000FB685A62FB681B8D013B9AB2FB681A854E
:102ED000FB685B8D9BB2013B9AB2FB685A856C4BD9
:102EE0001B68DB086B4AA2FB03231A0A13469B00EC
:102EF0001344DA00D31A3B623B6A013B3B623B6AF4
:102F0000002B18D1FB6800221A63FB68202283F88B
:102F10003D20FB68002283F83E20FB681B6C43F0D9
:102F20002002FB681A6462B600BFFB68002283F8C7
:102F30003C200123A6E0FB681B685B6903F00403E7
:102F4000042BD9D1FB681B681A68FB681B6842F424
:102F500000721A60FB681B681A69FB685B6AD2B270
:102F60001A70FB685B6A5A1CFB685A62FB681B8D0F
:102F7000013B9AB2FB681A85FB685B8D9BB2013BF3
:102F80009AB2FB685A8562B600BFFB681B681A6973
:102F9000FB685B6AD2B21A70FB685B6A5A1CFB68FA
:102FA0005A62FB681B8D013B9AB2FB681A85FB686D
:102FB0005B8D9BB2013B9AB2FB685A854EE07A6A00
:102FC000396BF86800F062FB0346002B01D0012347
:102FD00058E0FB681B681A69FB685B6AD2B21A701A
:102FE000FB685B6A5A1CFB685A62FB681B8D013BDD
:102FF0009AB2FB681A85FB685B8D9BB2013B9AB263
:10300000FB685A85FB681B685B6903F00403042BAB
:1030100024D1FB681B8D032B07D1FB681B681A6842
:10302000FB681B6822F480621A60FB681B681A69DF
:10303000FB685B6AD2B21A70FB685B6A5A1CFB6859
:103040005A62FB681B8D013B9AB2FB681A85FB68CC
:103050005B8D9BB2013B9AB2FB685A85FB681B8D66
:10306000002B7FF488AEFB68202283F83D20FB68AC
:10307000002283F83E20FB68002283F83C200023D6
:1030800000E0022318462837BD4680BD0400010039
:103090000000002089B5F81480B588B002AFF86050
:1030A0007A603B600B467B81FB68DB6A7B617B69F6
:1030B000082B06D07B69012B03D07B6913F5803F79
:1030C00008D1FB681B681A68FB681B6842F48072B1
:1030D0001A600BE0FB681B6B122B07D1FB681B68A7
:1030E0001A68FB681B6842F480721A603B680093A0
:1030F0007B6800224FF00111F86800F01DF90346CB
:10310000002B0DD0FB681B681B6803F48073B3F5BC
:10311000807F03D1FB684FF400721A64032335E00B
:10312000FB681B69B3F5804F08D17B89DBB21A4677
:10313000FB681B6802F0FE021A611BE07B89DB1151
:10314000DBB203F00603DBB263F00F03DAB2FB6815
:103150001B681A613B687A680E49F86800F066F9E6
:103160000346002B01D0012310E07B89DAB2FB6813
:103170001B681A613B687A680749F86800F056F9DD
:103180000346002B01D0012300E000231846183726
:10319000BD4680BD080001000200010080B588B076
:1031A00002AFF8607A603B600B467B81FB68DB6AAC
:1031B0007B61FB681B681A68FB681B6842F48062CD
:1031C0001A607B69082B06D07B69012B03D07B69D1
:1031D00013F5803F08D1FB681B681A68FB681B6801
:1031E00042F480721A600BE0FB681B6B112B07D155
:1031F000FB681B681A68FB681B6842F480721A60DF
:103200003B6800937B6800224FF00111F86800F0E2
:1032100093F80346002B0DD0FB681B681B6803F472
:103220008073B3F5807F03D1FB684FF400721A649A
:10323000032379E0FB681B69B3F5804F08D17B89D4
:10324000DBB243F00103DAB2FB681B681A615FE08E
:103250007B89DB11DBB203F00603DBB263F00F0303
:10326000DAB2FB681B681A613B687A683049F86813
:1032700000F0DCF80346002B01D0012354E07B89E9
:10328000DAB2FB681B681A613B687A682949F868FA
:1032900000F0CCF80346002B01D0012344E00023CA
:1032A0003B61FB681B685B693B61FB681B689B6952
:1032B0003B613B69FB681B681A68FB681B6842F44A
:1032C00080721A603B6800937B6800224FF0011106
:1032D000F86800F031F80346002B0DD0FB681B683E
:1032E0001B6803F48073B3F5807F03D1FB684FF450
:1032F00000721A64032317E07B89DB11DBB203F051
:103300000603DBB263F00E03DAB2FB681B681A61D6
:103310003B687A680749F86800F088F80346002B94
:1033200001D0012300E0002318461837BD4680BDB8
:10333000080001000200010080B584B000AFF86011
:10334000B9603B601346FB7148E03B68B3F1FF3F57
:1033500044D0FEF73FF90246BB69D31A3A689A4255
:1033600002D33B68002B39D1BB681B0CDBB2012BAD
:103370000DD1FB681B685B69DA43BB6813409BB2E5
:10338000002B0CBF01230023DBB21A460CE0FB68C4
:103390001B689B69DA43BB6813409BB2002B0CBFD0
:1033A00001230023DBB21A46FB799A4216D1FB684F
:1033B00000221A63FB68202283F83D20FB6800226C
:1033C00083F83E20FB681B6C43F02002FB681A6404
:1033D000FB68002283F83C20012323E0BB681B0C20
:1033E000DBB2012B0DD1FB681B685B69DA43BB685C
:1033F00013409BB2002B0CBF01230023DBB21A4603
:103400000CE0FB681B689B69DA43BB6813409BB206
:10341000002B0CBF01230023DBB21A46FB799A4232
:1034200093D0002318461037BD4680BD80B584B0C8
:1034300000AFF860B9607A603B6071E0FB681B68C0
:103440005B6903F48063B3F5806F23D1FB681B686D
:103450001A68FB681B6842F400721A60FB681B68FC
:103460006FF480625A61FB6800221A63FB682022B5
:1034700083F83D20FB68002283F83E20FB681B6C2C
:1034800043F00402FB681A64FB68002283F83C20C6
:10349000012367E07B68B3F1FF3F41D0FEF79AF864
:1034A00002463B68D31A7A689A4202D37B68002BA3
:1034B00036D1BB681B0CDBB2012B0CD1FB681B683F
:1034C0005B69DA43BB6813409BB2002B14BF012336
:1034D0000023DBB20BE0FB681B689B69DA43BB6827
:1034E00013409BB2002B14BF01230023DBB2002B3F
:1034F00016D0FB6800221A63FB68202283F83D2067
:10350000FB68002283F83E20FB681B6C43F020021E
:10351000FB681A64FB68002283F83C20012321E049
:10352000BB681B0CDBB2012B0CD1FB681B685B6911
:10353000DA43BB6813409BB2002B14BF0123002366
:10354000DBB20BE0FB681B689B69DA43BB68134086
:103550009BB2002B14BF01230023DBB2002B7FF4AE
:103560006DAF002318461037BD4680BD80B584B0CE
:1035700000AFF860B9607A6034E0F86800F0E3F812
:103580000346002B01D0012334E0BB68B3F1FF3FB9
:1035900028D0FEF71FF802467B68D31ABA689A4211
:1035A00002D3BB68002B1DD1FB681B685B6903F06D
:1035B0008003802B16D0FB6800221A63FB68202250
:1035C00083F83D20FB68002283F83E20FB681B6CDB
:1035D00043F02002FB681A64FB68002283F83C2059
:1035E000012307E0FB681B685B6903F08003802B05
:1035F000C3D1002318461037BD4680BD80B584B0C6
:1036000000AFF860B9607A6034E0F86800F09BF8C9
:103610000346002B01D0012334E0BB68B3F1FF3F28
:1036200028D0FDF7D7FF02467B68D31ABA689A42C2
:1036300002D3BB68002B1DD1FB681B685B6903F0DC
:103640000403042B16D0FB6800221A63FB682022B7
:1036500083F83D20FB68002283F83E20FB681B6C4A
:1036600043F02002FB681A64FB68002283F83C20C8
:10367000012307E0FB681B685B6903F00403042B6C
:10368000C3D1002318461037BD4680BD80B584B035
:1036900000AFF860B9607A6049E0FB681B685B695D
:1036A00003F01003102B19D1FB681B686FF0100298
:1036B0005A61FB6800221A63FB68202283F83D20D0
:1036C000FB68002283F83E20FB681A6CFB681A64D2
:1036D000FB68002283F83C20012330E0FDF77AFFED
:1036E00002467B68D31ABA689A4202D3BB68002BA1
:1036F0001DD1FB681B685B6903F04003402B16D0AB
:10370000FB6800221A63FB68202283F83D20FB68D7
:10371000002283F83E20FB681B6C43F02002FB680C
:103720001A64FB68002283F83C20012307E0FB6851
:103730001B685B6903F04003402BAED100231846A1
:103740001037BD4680BD80B483B000AF78607B6821
:103750001B685B6903F48063B3F5806F1BD17B68E2
:103760001B686FF480625A617B6800221A637B6871
:10377000202283F83D207B68002283F83E207B686E
:103780001B6C43F004027B681A647B68002283F898
:103790003C20012300E0002318460C37BD4680BCC6
:1037A0007047000080B586B000AF78607B68002B62
:1037B00001D101236CE27B681B6803F00103002B3D
:1037C00000F08780924B5B6803F00C03042B0CD055
:1037D0008F4B5B6803F00C03082B12D18C4B5B689A
:1037E00003F48033B3F5803F0BD1894B1B6803F49E
:1037F0000033002B6CD07B685B68002B68D1012301
:1038000046E27B685B68B3F5803F06D1804B1B685E
:103810007F4A43F4803313602EE07B685B68002BA3
:103820000CD17B4B1B687A4A23F480331360784BAE
:103830001B68774A23F4802313601DE07B685B6874
:10384000B3F5A02F0CD1724B1B68714A43F480234F
:1038500013606F4B1B686E4A43F4803313600BE0B8
:103860006B4B1B686A4A23F480331360684B1B68F8
:10387000674A23F4802313607B685B68002B13D0B6
:10388000FDF7A8FE386108E0FDF7A4FE02463B699B
:10389000D31A642B01D90323FAE15D4B1B6803F4AF
:1038A0000033002BF0D014E0FDF794FE386108E0FF
:1038B000FDF790FE02463B69D31A642B01D903231E
:1038C000E6E1534B1B6803F40033002BF0D100E01A
:1038D00000BF7B681B6803F00203002B63D04C4BD6
:1038E0005B6803F00C03002B0BD0494B5B6803F0C3
:1038F0000C03082B1CD1464B5B6803F48033002B70
:1039000016D1434B1B6803F00203002B05D07B68E4
:103910001B69012B01D00123BAE13D4B1B6823F049
:10392000F8027B685B69DB00394913430B603AE0BE
:103930007B681B69002B20D0364B01221A60FDF7F3
:1039400049FE386108E0FDF745FE02463B69D31A9F
:10395000022B01D903239BE12D4B1B6803F00203CB
:10396000002BF0D02A4B1B6823F0F8027B685B69C0
:10397000DB00274913430B6015E0264B00221A6039
:10398000FDF728FE386108E0FDF724FE02463B699A
:10399000D31A022B01D903237AE11D4B1B6803F0D4
:1039A0000203002BF0D17B681B6803F00803002B97
:1039B0003AD07B689B69002B19D0174B01221A6003
:1039C000FDF708FE386108E0FDF704FE02463B699A
:1039D000D31A022B01D903235AE10D4B5B6A03F082
:1039E0000203002BF0D0012000F0FCFA1CE00A4B8F
:1039F00000221A60FDF7EEFD38610FE0FDF7EAFDE9
:103A000002463B69D31A022B08D9032340E100BFC9
:103A10000010024000004242800442429E4B5B6A1A
:103A200003F00203002BE9D17B681B6803F0040359
:103A3000002B00F0A6800023FB75974BDB6903F099
:103A40008053002B0DD1944BDB69934A43F0805394
:103A5000D361914BDB6903F08053BB60BB680123EA
:103A6000FB758E4B1B6803F48073002B18D18B4BB6
:103A70001B688A4A43F480731360FDF7ABFD38611D
:103A800008E0FDF7A7FD02463B69D31A642B01D974
:103A90000323FDE0814B1B6803F48073002BF0D0FF
:103AA0007B68DB68012B06D17B4B1B6A7A4A43F0AB
:103AB000010313622DE07B68DB68002B0CD1764B91
:103AC0001B6A754A23F001031362734B1B6A724A27
:103AD00023F0040313621CE07B68DB68052B0CD128
:103AE0006D4B1B6A6C4A43F0040313626A4B1B6AFA
:103AF000694A43F0010313620BE0674B1B6A664A95
:103B000023F001031362644B1B6A634A23F004032E
:103B100013627B68DB68002B15D0FDF75BFD386115
:103B20000AE0FDF757FD02463B69D31A41F288329D
:103B3000934201D90323ABE0574B1B6A03F0020306
:103B4000002BEED014E0FDF745FD38610AE0FDF7EB
:103B500041FD02463B69D31A41F28832934201D9B2
:103B6000032395E04C4B1B6A03F00203002BEED1BC
:103B7000FB7D012B05D1484BDB69474A23F080537D
:103B8000D3617B68DB69002B00F08180424B5B686E
:103B900003F00C03082B61D07B68DB69022B46D154
:103BA0003F4B00221A60FDF715FD386108E0FDF774
:103BB00011FD02463B69D31A022B01D9032367E0AA
:103BC000354B1B6803F00073002BF0D17B681B6A38
:103BD000B3F5803F08D1304B5B6823F400327B683B
:103BE0009B682D4913434B602B4B5B6823F4741285
:103BF0007B68196A7B685B6A0B43274913434B60F8
:103C0000274B01221A60FDF7E5FC386108E0FDF75B
:103C1000E1FC02463B69D31A022B01D9032337E0AA
:103C20001D4B1B6803F00073002BF0D02FE01C4BE2
:103C300000221A60FDF7CEFC386108E0FDF7CAFCEF
:103C400002463B69D31A022B01D9032320E0124B11
:103C50001B6803F00073002BF0D118E07B68DB6970
:103C6000012B01D1012313E00B4B5B68FB60FB6868
:103C700003F480327B681B6A9A4206D1FB6803F426
:103C800070127B685B6A9A4201D0012300E0002336
:103C900018461837BD4680BD001002400070004035
:103CA0006000424280B584B000AF786039607B68C4
:103CB000002B01D10123D0E06A4B1B6803F00703FE
:103CC0003A689A4210D9674B1B6823F0070265498E
:103CD0003B6813430B60634B1B6803F007033A68B0
:103CE0009A4201D00123B8E07B681B6803F002030D
:103CF000002B20D07B681B6803F00403002B05D049
:103D0000594B5B68584A43F4E06353607B681B6817
:103D100003F00803002B05D0534B5B68524A43F471
:103D200060535360504B5B6823F0F0027B689B68E4
:103D30004D4913434B607B681B6803F00103002B64
:103D400040D07B685B68012B07D1474B1B6803F4AD
:103D50000033002B15D101237FE07B685B68022BC9
:103D600007D1414B1B6803F00073002B09D10123DD
:103D700073E03D4B1B6803F00203002B01D10123CC
:103D80006BE0394B5B6823F003027B685B68364964
:103D900013434B60FDF71EFCF8600AE0FDF71AFCC8
:103DA0000246FB68D31A41F28832934201D90323B9
:103DB00053E02D4B5B6803F00C027B685B689B0053
:103DC0009A42EBD1274B1B6803F007033A689A42EB
:103DD00010D2244B1B6823F0070222493B6813438F
:103DE0000B60204B1B6803F007033A689A4201D02E
:103DF000012332E07B681B6803F00403002B08D02A
:103E0000194B5B6823F4E0627B68DB681649134357
:103E10004B607B681B6803F00803002B09D0124B32
:103E20005B6823F460527B681B69DB000E49134317
:103E30004B6000F021F802460B4B5B681B0903F056
:103E40000F030A49CB5C22FA03F3094A1360094BBA
:103E50001B681846FDF712FA002318461037BD46B6
:103E600080BD00BF0020024000100240446B0008EB
:103E7000000000200400002080B487B000AF0023C1
:103E8000FB600023BB6000237B6100237B60002379
:103E90003B611E4B5B68FB60FB6803F00C03042B6B
:103EA00002D0082B03D027E0194B3B6127E0FB68C9
:103EB0009B0C03F00F03174AD35C7B60FB6803F491
:103EC0008033002B10D0114B5B685B0C03F00103B7
:103ED000114AD35CBB607B680D4A02FB03F2BB68EE
:103EE000B2FBF3F37B6104E07B680C4A02FB03F353
:103EF0007B617B693B6102E0054B3B6100BF3B6935
:103F000018461C37BD4680BC704700BF00100240F9
:103F100000127A005C6B00086C6B000800093D0021
:103F200080B400AF024B1B681846BD4680BC70478A
:103F30000000002080B500AFFFF7F2FF0246054BFE
:103F40005B681B0A03F007030349CB5C22FA03F307
:103F5000184680BD00100240546B000880B500AFC9
:103F6000FFF7DEFF0246054B5B68DB0A03F0070341
:103F70000349CB5C22FA03F3184680BD00100240CF
:103F8000546B000880B483B000AF786039607B6800
:103F90000F221A60114B5B6803F003027B685A60C2
:103FA0000E4B5B6803F0F0027B689A600B4B5B681A
:103FB00003F4E0627B68DA60084B5B68DB0803F4BB
:103FC000E0627B681A61064B1B6803F007023B68DE
:103FD0001A6000BF0C37BD4680BC7047001002401D
:103FE0000020024080B485B000AF78600A4B1B68A7
:103FF0000A4AA2FB03235B0A7A6802FB03F3FB6015
:1040000000BFFB685A1EFA60002BF9D100BF00BF49
:104010001437BD4680BC704700000020D34D6210AD
:1040200080B586B000AF786000233B610023FB6061
:104030007B681B6803F00103002B7DD00023FB7518
:104040004F4BDB6903F08053002B0DD14C4BDB69E8
:104050004B4A43F08053D361494BDB6903F08053F3
:10406000BB60BB680123FB75464B1B6803F4807380
:10407000002B18D1434B1B68424A43F480731360F2
:10408000FDF7A8FA386108E0FDF7A4FA02463B699B
:10409000D31A642B01D903236DE03A4B1B6803F458
:1040A0008073002BF0D0364B1B6A03F44073FB6027
:1040B000FB68002B2ED07B685B6803F44073FA68C2
:1040C0009A4227D02E4B1B6A23F44073FB602E4B81
:1040D00001221A602C4B00221A60294AFB681362E5
:1040E000FB6803F00103002B14D0FDF773FA38616D
:1040F0000AE0FDF76FFA02463B69D31A41F28832B3
:10410000934201D9032336E01D4B1B6A03F00203DF
:10411000002BEED01A4B1B6A23F440727B685B685D
:10412000174913430B62FB7D012B05D1144BDB694F
:10413000134A23F08053D3617B681B6803F00203AA
:10414000002B08D00E4B5B6823F440427B689B68D1
:104150000B4913434B607B681B6803F01003002B73
:1041600008D0074B5B6823F480027B68DB68044956
:1041700013434B60002318461837BD4680BD00BF6F
:1041800000100240007000404004424280B588B0F8
:1041900000AF786000237B610023FB6100233B615B
:1041A0000023FB600023BB617B68102B0AD07B6877
:1041B000102B00F28A807B68012B45D07B68022B94
:1041C00075D082E0464B5B68FB60454B1B6803F093
:1041D0008073002B7BD0FB689B0C03F00F03414ADC
:1041E000D35C3B61FB6803F48033002B15D03C4B60
:1041F0005B685B0C03F001033B4AD35C7B61FB68AB
:1042000003F48033002B0DD0384A7B69B2FBF3F204
:104210003B6902FB03F3FB6104E03B69344A02FBA8
:1042200003F3FB612E4B5B6803F48003B3F5800F4F
:1042300002D1FB69BB614AE0FB695B002D4AA2FB2E
:1042400003235B08BB6142E0254B1B6AFB60FB68F4
:1042500003F44073B3F5807F08D1FB6803F00203D9
:10426000002B03D04FF40043BB611FE0FB6803F455
:104270004073B3F5007F09D1194B5B6A03F0020369
:10428000002B03D049F64043BB610FE0FB6803F409
:104290004073B3F5407F1CD1114B1B6803F400330E
:1042A000002B16D04FF22443BB6112E011E0FFF760
:1042B00055FE02460A4B5B689B0B03F00303013378
:1042C0005B00B2FBF3F3BB6104E000BF02E000BFA0
:1042D00000E000BFBB6918462037BD4680BD00BF67
:1042E00000100240706B0008806B000800127A001A
:1042F00000093D00ABAAAAAA80B582B000AF7860E1
:104300007B68002B01D1012341E07B6893F83D30AD
:10431000DBB2002B06D17B68002283F83C20786852
:1043200000F039F87B68022283F83D207B681A6828
:104330007B6804331946104600F09CF97B68012223
:1043400083F846207B68012283F83E207B680122A7
:1043500083F83F207B68012283F840207B6801229C
:1043600083F841207B68012283F842207B68012288
:1043700083F843207B68012283F844207B68012274
:1043800083F845207B68012283F83D2000231846EE
:104390000837BD4680BD80B483B000AF786000BFF1
:1043A0000C37BD4680BC704780B485B000AF7860E4
:1043B0007B6893F83D30DBB2012B01D001233AE05A
:1043C0007B68022283F83D207B681B68DA687B6883
:1043D0001B6842F00102DA607B681B68184A93424E
:1043E0000ED07B681B68B3F1804F09D07B681B68D7
:1043F000144A934204D07B681B68134A934211D13C
:104400007B681B689B6803F00703FB60FB68062B57
:1044100010D07B681B681A687B681B6842F0010239
:104420001A6007E07B681B681A687B681B6842F0AB
:1044300001021A60002318461437BD4680BC70473D
:10444000002C0140000400400008004080B584B00A
:1044500000AF78607B681B68DB68FB607B681B686B
:104460001B69BB60BB6803F00203002B20D0FB6814
:1044700003F00203002B1BD07B681B686FF0020265
:104480001A617B6801221A777B681B689B6903F0BD
:104490000303002B03D0786800F0D1F805E07868BA
:1044A00000F0C4F8786800F0D3F87B6800221A772F
:1044B000BB6803F00403002B20D0FB6803F0040367
:1044C000002B1BD07B681B686FF004021A617B68AD
:1044D00002221A777B681B689B6903F44073002BE8
:1044E00003D0786800F0ABF805E0786800F09EF83B
:1044F000786800F0ADF87B6800221A77BB6803F09B
:104500000803002B20D0FB6803F00803002B1BD00E
:104510007B681B686FF008021A617B6804221A77B7
:104520007B681B68DB6903F00303002B03D078680A
:1045300000F085F805E0786800F078F8786800F019
:1045400087F87B6800221A77BB6803F01003002B02
:1045500020D0FB6803F01003002B1BD07B681B6886
:104560006FF010021A617B6808221A777B681B685B
:10457000DB6903F44073002B03D0786800F05FF828
:1045800005E0786800F052F8786800F061F87B6820
:1045900000221A77BB6803F00103002B0CD0FB68E4
:1045A00003F00103002B07D07B681B686FF001024A
:1045B0001A617868FCF712FEBB6803F08003002BD9
:1045C0000CD0FB6803F08003002B07D07B681B68CE
:1045D0006FF080021A61786800F0C3F8BB6803F0DE
:1045E0004003002B0CD0FB6803F04003002B07D0E6
:1045F0007B681B686FF040021A61786800F031F840
:10460000BB6803F02003002B0CD0FB6803F02003F1
:10461000002B07D07B681B686FF020021A61786856
:1046200000F096F800BF1037BD4680BD80B483B05F
:1046300000AF786000BF0C37BD4680BC704780B4C7
:1046400083B000AF786000BF0C37BD4680BC7047B8
:1046500080B483B000AF786000BF0C37BD4680BC2B
:10466000704780B483B000AF786000BF0C37BD46A0
:1046700080BC704780B485B000AF786039607B68DB
:104680001B68FB607B682F4A93420BD07B68B3F1B9
:10469000804F07D07B682C4A934203D07B682B4A1B
:1046A000934208D1FB6823F07003FB603B685B68B2
:1046B000FA681343FB607B68224A93420BD07B6805
:1046C000B3F1804F07D07B681F4A934203D07B68C9
:1046D0001E4A934208D1FB6823F44073FB603B6899
:1046E000DB68FA681343FB60FB6823F080023B68D9
:1046F0005B691343FB607B68FA681A603B689A68E1
:104700007B68DA623B681A687B689A627B680D4A4C
:10471000934203D13B681A697B681A637B68012264
:104720005A617B681B6903F00103002B05D07B688D
:104730001B6923F001027B681A6100BF1437BD4674
:1047400080BC7047002C014000040040000800407D
:1047500080B483B000AF786000BF0C37BD4680BC2A
:10476000704780B483B000AF786000BF0C37BD469F
:1047700080BC704780B582B000AF78607B68002B4A
:1047800001D1012342E07B6893F84130DBB2002B7A
:1047900006D17B68002283F840207868FCF756FE3B
:1047A0007B68242283F841207B681B68DA687B6879
:1047B0001B6822F40052DA60786800F0E5F97B6843
:1047C0001B681A697B681B6822F490421A617B6837
:1047D0001B685A697B681B6822F02A025A617B6851
:1047E0001B68DA687B681B6842F40052DA607B68F9
:1047F00000225A647B68202283F841207B682022B3
:1048000083F842207B6800225A6300231846083749
:10481000BD4680BD80B58CB000AFF860B96013466E
:10482000FB80FB6893F84130DBB2202B56D1BB688C
:10483000002B02D0FB88002B01D101234FE0BA6886
:10484000FB681A62FB68FA889A84FB68FA88DA8443
:10485000FB6800225A64FB68212283F84120FB6830
:104860009B6B214A9A62FB689B6B204ADA62FB6869
:104870009B6B1F4A1A63FB689B6B00225A6307F10C
:104880000803FB62FB68986BFB6A1968FB681B688E
:1048900004331A46FB88FDF739FCFB681B686FF090
:1048A00040021A60FB681B681433BB61BB6953E8A4
:1048B000003F7B617B6943F08003BB62FB681B6840
:1048C0001433BA6A7A623B62396A7A6A41E8002331
:1048D000FB61FB69002BE5D1002300E002231846B1
:1048E0003037BD4680BD00BF2B490008C5490008D0
:1048F000E149000880B483B000AF786000BF0C3796
:10490000BD4680BC704780B483B000AF786000BF04
:104910000C37BD4680BC704780B483B000AF786070
:1049200000BF0C37BD4680BC704780B590B000AF6B
:1049300078607B685B6AFB637B681B681B6803F0BD
:104940002003002B37D1FB6B0022DA84FB6B1B6842
:1049500014337B627B6A53E8003F3B623B6A23F07F
:104960008003BB63FB6B1B681433BA6B3A63FB6257
:10497000F96A3A6B41E80023BB62BB6A002BE5D1C0
:10498000FB6B1B680C333B613B6953E8003FFB60EA
:10499000FB6843F040037B63FB6B1B680C337A6B53
:1049A000FA61BB61B969FA6941E800237B617B69FF
:1049B000002BE5D102E0F86BFFF79CFF00BF40370A
:1049C000BD4680BD80B584B000AF78607B685B6A0F
:1049D000FB60F868FFF797FF00BF1037BD4680BD4A
:1049E00080B584B000AF78600023FB607B685B6AB1
:1049F000BB60BB681B685B6903F08003002B14BFBE
:104A000001230023DBB2FB60BB6893F84130DBB2CB
:104A1000212B08D1FB68002B05D0BB680022DA846B
:104A2000B86800F027F8BB681B685B6903F04003B7
:104A3000002B14BF01230023DBB2FB60BB6893F89B
:104A40004230DBB2222B08D1FB68002B05D0BB68BB
:104A50000022DA85B86800F034F8BB685B6C43F07C
:104A60001002BB685A64B868FFF756FF00BF1037E2
:104A7000BD4680BD80B489B000AF78607B681B689C
:104A80000C33FB60FB6853E8003FBB60BB6823F05E
:104A9000C003FB617B681B680C33FA69BA617B61F8
:104AA0007969BA6941E800233B613B69002BE5D194
:104AB0007B68202283F8412000BF2437BD4680BC9C
:104AC000704780B495B000AF78607B681B680C338A
:104AD0007B637B6B53E8003F3B633B6B23F490733A
:104AE000FB647B681B680C33FA6C3A64FB63F96BFC
:104AF0003A6C41E80023BB63BB6B002BE5D17B68BC
:104B00001B6814333B623B6A53E8003FFB61FB695F
:104B100023F00103BB647B681B681433BA6CFA6230
:104B2000BB62B96AFA6A41E800237B627B6A002BA8
:104B3000E5D17B681B6B012B19D17B681B680C339B
:104B4000FB60FB6853E8003FBB60BB6823F01003C9
:104B50007B647B681B680C337A6CBA617B61796912
:104B6000BA6941E800233B613B69002BE5D17B68D2
:104B7000202283F842207B6800221A6300BF54374A
:104B8000BD4680BC7047000080B584B000AF78603F
:104B90007B681B681B6923F440517B68DA687B687B
:104BA0001B680A431A617B689A687B681B691A4311
:104BB0007B685B691343BB607B681B68DB6823F41D
:104BC000B05323F00C037A681268B9680B43D360C2
:104BD0007B681B685B6923F440717B689A697B681A
:104BE0001B680A435A617B681B682C4A934203D1B5
:104BF000FFF7B4F9F86002E0FFF79CF9F860FA6893
:104C000013469B0013449A001A447B685B689B0020
:104C1000B2FBF3F3224AA2FB03235B091901FA68F2
:104C200013469B0013449A001A447B685B689B0000
:104C3000B2FBF3F21A4BA3FB02035B09642000FBF7
:104C400003F3D31A1B013233154AA2FB03235B097A
:104C500003F0F0031944FA6813469B0013449A00CA
:104C60001A447B685B689B00B2FBF3F20C4BA3FB1E
:104C700002035B09642000FB03F3D31A1B013233E8
:104C8000074AA2FB03235B0903F00F027B681B6842
:104C90000A449A6000BF1037BD4680BD003801400D
:104CA0001F85EB5180B485B000AF0346FB80002325
:104CB000FB60B7F90630842B05D0B7F90620FB68F6
:104CC00013440333FB60FB6818461437BD4680BCB1
:104CD000704780B500AF00F0F1FA0023184680BDA0
:104CE000F0B589B004AF786039607B685B69002BF0
:104CF00020D07B689B69002B1CD07B685C687B683C
:104D00001D687B681E697B68B3F908301846FFF799
:104D1000C9FF01467B685B697A68926902920193D8
:104D200000913B6832462946204600F0E8F80346E9
:104D3000FB601CE07B685C687B681D687B681B69A6
:104D40009EB27B68B3F908301846FFF7ABFF024606
:104D500007F10C03019300923B6832462946204636
:104D600000F02AF90346012B01D0002300E0FB6884
:104D700018461437BD46F0BD80B584B000AF7860EA
:104D80007B68FB60FB68002B01D0FB6800E001231F
:104D9000184600F05FFA002318461037BD4680BD64
:104DA00080B483B000AF78607B6803F108027B6851
:104DB0005A607B684FF0FF329A607B6803F108020B
:104DC0007B68DA607B6803F108027B681A617B68A4
:104DD00000221A6000BF0C37BD4680BC704780B40B
:104DE00083B000AF78607B6800221A6100BF0C3787
:104DF000BD4680BC704780B485B000AF7860396034
:104E00007B685B68FB603B68FA685A60FB689A687D
:104E10003B689A60FB689B683A685A60FB683A682E
:104E20009A603B687A681A617B681B685A1C7B68C9
:104E30001A6000BF1437BD4680BC704780B485B08F
:104E400000AF786039603B681B68BB60BB68B3F13A
:104E5000FF3F03D17B681B69FB600CE07B68083374
:104E6000FB6002E0FB685B68FB60FB685B681B68DB
:104E7000BA689A42F6D2FB685A683B685A603B6847
:104E80005B683A689A603B68FA689A60FB683A68BF
:104E90005A603B687A681A617B681B685A1C7B6899
:104EA0001A6000BF1437BD4680BC704780B485B01F
:104EB00000AF78607B681B69FB607B685B687A6821
:104EC00092689A607B689B687A6852685A60FB684F
:104ED0005B687A689A4203D17B689A68FB685A607B
:104EE0007B6800221A61FB681B685A1EFB681A6007
:104EF000FB681B6818461437BD4680BC704780B5F8
:104F00008EB004AFF860B9607A603B607B6B002BB9
:104F10000AD14FF0500383F31188BFF36F8FBFF3B3
:104F20004F8F3B6200BFFEE7BB6B002B0AD14FF0F7
:104F3000500383F31188BFF36F8FBFF34F8FFB6173
:104F400000BFFEE7B4233B613B69B42B0AD04FF0AE
:104F5000500383F31188BFF36F8FBFF34F8FBB6193
:104F600000BFFEE73B69BB6B002B1ED07B6B002BA9
:104F70001BD0BB6B7B627B6A7A6B1A637B6A0222F3
:104F800083F8B120002303937B6A029307F1140393
:104F900001933B6B00933B687A68B968F86800F04E
:104FA00051F8786A00F0ECF801E000237B617B693E
:104FB00018462837BD4680BD80B58CB004AFF86078
:104FC000B9603B601346FB80FB889B00184600F0ED
:104FD00097FE78617B69002B0ED0B42000F090FE24
:104FE000F861FB69002B03D0FB697A691A6305E05D
:104FF000786900F051FF01E00023FB61FB69002BA1
:1050000017D0FB69002283F8B120FA8800230393AC
:10501000FB690293FB6A0193BB6A00933B68B96822
:10502000F86800F00FF8F86900F0AAF80123BB61F6
:1050300002E04FF0FF33BB61BB6918462037BD4625
:1050400080BD000080B588B000AFF860B9607A60BC
:105050003B603B6B1A6B7B6803F18043013B9B0019
:105060001344BB61BB6923F00703BB61BB6903F059
:105070000703002B0AD04FF0500383F31188BFF3CE
:105080006F8FBFF34F8F7B6100BFFEE7BB68002BC4
:105090001FD00023FB6112E0BA68FB691344197842
:1050A0003A6BFB69134434330A461A70BA68FB69D9
:1050B00013441B78002B06D0FB690133FB61FB69AD
:1050C0000F2BE9D900E000BF3B6B002283F843209F
:1050D00003E03B6B002283F83420BB6A062B01D926
:1050E0000623BB623B6BBA6ADA623B6BBA6A5A64EC
:1050F0003B6B00229A643B6B04331846FFF76FFE4C
:105100003B6B18331846FFF76AFE3B6B3A6B1A612C
:10511000BB6AC3F107023B6B9A613B6B3A6B5A6205
:105120003B6B0022C3F8AC203B6B002283F8B0201D
:105130003B6B4C3360220021184601F003F83B6BB7
:105140000C4A1A653B6B0C4A5A653B6B0B4A9A65D5
:105150003A68F968B86900F01FFC02463B6B1A60B8
:10516000FB6A002B02D0FB6A3A6B1A6000BF203743
:10517000BD4680BDA46B0008C46B0008846B0008AA
:1051800080B582B000AF786000F0F8FC2A4B1B6855
:105190000133294A1360294B1B68002B09D1274A88
:1051A0007B681360244B1B68012B10D100F0CCFAF4
:1051B0000DE0234B1B68002B09D1204B1B68DA6ADA
:1051C0007B68DB6A9A4202D81C4A7B6813601D4BDD
:1051D0001B6801331B4A13607B68DB6A01229A401B
:1051E000194B1B681343184A13607B68DA6A13462D
:1051F0009B0013449B00154A1A447B6804331946EC
:105200001046FFF7F8FD00F0E9FC0D4B1B68002B82
:105210000ED00A4B1B68DA6A7B68DB6A9A4207D2B7
:105220000B4B4FF080521A60BFF34F8FBFF36F8F5D
:1052300000BF0837BD4680BD540400205403002041
:1052400060040020700400205C040020580300204B
:1052500004ED00E080B584B000AF78600023FB600F
:105260007B68002B17D0134B1B68002B0AD04FF024
:10527000500383F31188BFF36F8FBFF34F8FBB6071
:1052800000BFFEE700F084F80021786800F01EFB04
:1052900000F08CF8F860FB68002B07D1064B4FF04C
:1052A00080521A60BFF34F8FBFF36F8F00BF10376C
:1052B000BD4680BD7C04002004ED00E080B58AB0CE
:1052C00004AF0023BB6000237B603A46391D07F121
:1052D00008031846FBF7C2FD39687B68BA6802927A
:1052E00001930023009300230A4621492148FFF738
:1052F00006FE0346204A13601F4B1B68002B02D09A
:1053000001237B6101E000237B617B69012B1BD1C1
:105310004FF0500383F31188BFF36F8FBFF34F8FAC
:105320003B6100BF154B1B684C33154A1360154B8E
:105330004FF0FF321A60144B01221A60134B002207
:105340001A6000F0A9FB0EE07B69B3F1FF3F0AD1C0
:105350004FF0500383F31188BFF36F8FBFF34F8F6C
:10536000FB6000BFFEE700BF1837BD4680BD00BF31
:105370003C6B0008195700087804002054030020F3
:105380001000002074040020600400205804002055
:1053900080B400AF044B1B680133034A136000BFA5
:1053A000BD4680BC704700BF7C04002080B584B03F
:1053B00000AF0023FB600023BB60414B1B68002B48
:1053C0000AD14FF0500383F31188BFF36F8FBFF3FF
:1053D0004F8F3B6000BFFEE700F0D0FB384B1B68EF
:1053E000013B374A1360364B1B68002B61D1354BAC
:1053F0001B68002B5DD02EE0334BDB68DB68FB6065
:10540000FB6818331846FFF751FDFB680433184654
:10541000FFF74CFDFB68DB6A01229A402B4B1B68AF
:1054200013432A4A1360FB68DA6A13469B0013444D
:105430009B00274A1A44FB68043319461046FFF7BD
:10544000DAFCFB68DA6A234B1B68DB6A9A4202D3F8
:10545000214B01221A601C4B1B68002BCCD1FB682E
:10546000002B01D000F012FA1C4B1B687B607B689C
:10547000002B10D000F036F80346002B02D0164B5C
:1054800001221A607B68013B7B607B68002BF1D1B5
:10549000124B00221A60104B1B68002B09D001230D
:1054A000BB600F4B4FF080521A60BFF34F8FBFF3BA
:1054B0006F8F00F093FBBB6818461037BD4680BD68
:1054C0007C04002054040020140400205C0400200C
:1054D00058030020540300206804002064040020C6
:1054E00004ED00E080B586B000AF00237B614E4B39
:1054F0001B68002B40F08E804C4B1B6801333B61D6
:105500004A4A3B6913603B69002B20D1484B1B681A
:105510001B68002B0AD04FF0500383F31188BFF3B0
:105520006F8FBFF34F8F3B6000BFFEE7404B1B68A0
:10553000FB60404B1B683E4A13603E4AFB681360A9
:105540003D4B1B6801333C4A136000F09FF93B4B15
:105550001B683A699A4248D3354B1B681B68002B7D
:1055600004D1364B4FF0FF321A603EE0304B1B68DF
:10557000DB68DB68BB60BB685B687B603A697B6843
:105580009A4203D22D4A7B6813602EE0BB68043335
:105590001846FFF78BFCBB689B6A002B04D0BB68E6
:1055A00018331846FFF782FCBB68DB6A01229A4079
:1055B000234B1B681343224A1360BB68DA6A134605
:1055C0009B0013449B001F4A1A44BB6804331946CE
:1055D0001046FFF710FCBB68DA6A1B4B1B68DB6ADE
:1055E0009A42B9D301237B61B6E7174B1B68DA6A8D
:1055F000144913469B0013449B000B441B68012B6A
:1056000001D901237B61114B1B68002B07D00123BB
:105610007B6104E00E4B1B6801330D4A13607B690C
:1056200018461837BD4680BD7C0400205804002071
:105630000C040020100400206C04002074040020DE
:105640005C0400205803002054030020680400205C
:105650006404002080B487B000AF294B1B68002B86
:1056600003D0284B01221A6044E0264B00221A6026
:10567000254B1B68FB60FB68B3FA83F3FB72FB7A74
:10568000C3F11F037B6121497A6913469B001344D0
:105690009B000B441B68002B0AD14FF0500383F38F
:1056A0001188BFF36F8FBFF34F8F7B6000BFFEE7A2
:1056B0007A6913469B0013449B00144A13443B61D0
:1056C0003B695B685A683B695A603B695A683B6949
:1056D00008339A4204D13B695B685A683B695A6057
:1056E0003B695B68DB680A4A1360094B1B684C33F3
:1056F000084A136000BF1C37BD4680BC704700BF1E
:105700007C040020680400205C0400205803002072
:10571000540300201000002080B582B000AF7860F4
:1057200000F052F8064B1B68012BF9D9054B4FF0DE
:1057300080521A60BFF34F8FBFF36F8FF0E700BF47
:105740005803002004ED00E080B582B000AF0023D4
:105750007B600CE07A6813469B0013449B00124A5E
:1057600013441846FFF71CFB7B6801337B607B68A2
:10577000062BEFD90D48FFF713FB0D48FFF710FB81
:105780000C48FFF70DFB0C48FFF70AFB0B48FFF72F
:1057900007FB0B4B054A1A600A4B054A1A6000BF0B
:1057A0000837BD4680BD00BF58030020E403002039
:1057B000F8030020140400202804002040040020E6
:1057C0000C0400201004002080B582B000AF19E066
:1057D00000F0D4F9104BDB68DB687B607B68043336
:1057E0001846FFF763FB0D4B1B68013B0B4A136028
:1057F0000B4B1B68013B0A4A136000F0EFF9786815
:1058000000F010F8064B1B68002BE1D100BF00BF71
:105810000837BD4680BD00BF280400205404002086
:105820003C04002080B584B000AF78607B684C33C6
:10583000184600F0F7FC7B6893F8B130002B08D1D4
:105840007B681B6B184600F027FB786800F024FB90
:1058500018E07B6893F8B130012B03D1786800F031
:105860001BFB0FE07B6893F8B130022B0AD04FF09E
:10587000500383F31188BFF36F8FBFF34F8FFB602B
:1058800000BFFEE700BF1037BD4680BD80B483B0C7
:1058900000AF0C4B1B681B68002B04D10A4B4FF068
:1058A000FF321A6008E0074B1B68DB68DB687B602F
:1058B0007B685B68044A136000BF0C37BD4680BC40
:1058C000704700BF0C0400207404002080B584B031
:1058D00000AF78603960294B1B68FB60284B1B6860
:1058E00004331846FFF7E2FA0346002B0BD1244B92
:1058F0001B68DB6A012202FA03F3DA43214B1B68BF
:105900001340204A13607B68B3F1FF3F0AD13B6824
:10591000002B07D01A4B1B68043319461A48FFF7AF
:105920006AFA26E0FA687B681344BB60144B1B6874
:10593000BA685A60BA68FB689A4209D2134B1A686F
:105940000F4B1B68043319461046FFF777FA10E037
:105950000F4B1A680A4B1B68043319461046FFF7B1
:105960006DFA0C4B1B68BA689A4202D2094ABB68AE
:10597000136000BF1037BD4680BD00BF5804002033
:10598000540300205C040020400400201004002088
:105990000C0400207404002080B485B000AFF860CF
:1059A000B9607A60FB68043BFB60FB684FF0807273
:1059B0001A60FB68043BFB60BB6823F00102FB68D4
:1059C0001A60FB68043BFB60084AFB681A60FB68CE
:1059D000143BFB607A68FB681A60FB68203BFB6045
:1059E000FB6818461437BD4680BC7047F159000863
:1059F00080B485B000AF00237B60124B1B68B3F10D
:105A0000FF3F0AD04FF0500383F31188BFF36F8F2D
:105A1000BFF34F8FFB6000BFFEE74FF0500383F3EF
:105A20001188BFF36F8FBFF34F8FBB6000BF00BF04
:105A30007B68002BFCD000BF00BF1437BD4680BC84
:105A4000704700BF0C0000200000000000000000B4
:105A5000074B19680868B0E8F00F80F30988BFF3B6
:105A60006F8F4FF0000080F311884EF00D0E7047DD
:105A70005403002000BF00BF06480068006880F3A0
:105A8000088862B661B6BFF34F8FBFF36F8F00DF38
:105A900000BF00BF08ED00E080B584B000AF324B1E
:105AA000FB60FB681B78DBB27B60FB68FF221A702F
:105AB000FB681B78DBB2FB70FB78DBB203F05003B2
:105AC000DAB22A4B1A702A4B07221A6009E0284BD7
:105AD0001B68013B264A1360FB78DBB25B00DBB23C
